{
  "_format": "hh-sol-artifact-1",
  "contractName": "Fundraising",
  "sourceName": "contracts/Fundraising.sol",
  "abi": [
    {
      "inputs": [
        {
          "internalType": "address",
          "name": "_usdcToken",
          "type": "address"
        }
      ],
      "stateMutability": "nonpayable",
      "type": "constructor"
    },
    {
      "anonymous": false,
      "inputs": [
        {
          "indexed": true,
          "internalType": "uint256",
          "name": "campaignId",
          "type": "uint256"
        },
        {
          "indexed": true,
          "internalType": "address",
          "name": "creator",
          "type": "address"
        }
      ],
      "name": "CampaignCreated",
      "type": "event"
    },
    {
      "anonymous": false,
      "inputs": [
        {
          "indexed": true,
          "internalType": "uint256",
          "name": "campaignId",
          "type": "uint256"
        },
        {
          "indexed": true,
          "internalType": "address",
          "name": "donor",
          "type": "address"
        },
        {
          "indexed": false,
          "internalType": "uint256",
          "name": "amount",
          "type": "uint256"
        }
      ],
      "name": "DonationReceived",
      "type": "event"
    },
    {
      "anonymous": false,
      "inputs": [
        {
          "indexed": true,
          "internalType": "uint256",
          "name": "campaignId",
          "type": "uint256"
        },
        {
          "indexed": true,
          "internalType": "address",
          "name": "beneficiary",
          "type": "address"
        },
        {
          "indexed": false,
          "internalType": "uint256",
          "name": "amount",
          "type": "uint256"
        }
      ],
      "name": "FundsWithdrawn",
      "type": "event"
    },
    {
      "anonymous": false,
      "inputs": [
        {
          "indexed": true,
          "internalType": "uint256",
          "name": "campaignId",
          "type": "uint256"
        },
        {
          "indexed": true,
          "internalType": "address",
          "name": "donor",
          "type": "address"
        },
        {
          "indexed": false,
          "internalType": "uint256",
          "name": "amount",
          "type": "uint256"
        }
      ],
      "name": "Refunded",
      "type": "event"
    },
    {
      "inputs": [],
      "name": "campaignCount",
      "outputs": [
        {
          "internalType": "uint256",
          "name": "",
          "type": "uint256"
        }
      ],
      "stateMutability": "view",
      "type": "function"
    },
    {
      "inputs": [
        {
          "internalType": "uint256",
          "name": "",
          "type": "uint256"
        }
      ],
      "name": "campaigns",
      "outputs": [
        {
          "internalType": "string",
          "name": "name",
          "type": "string"
        },
        {
          "internalType": "string",
          "name": "description",
          "type": "string"
        },
        {
          "internalType": "uint256",
          "name": "goal",
          "type": "uint256"
        },
        {
          "internalType": "uint256",
          "name": "minDonation",
          "type": "uint256"
        },
        {
          "internalType": "uint256",
          "name": "deadline",
          "type": "uint256"
        },
        {
          "internalType": "address",
          "name": "beneficiary",
          "type": "address"
        },
        {
          "internalType": "address",
          "name": "creator",
          "type": "address"
        },
        {
          "internalType": "address",
          "name": "token",
          "type": "address"
        },
        {
          "internalType": "string",
          "name": "image",
          "type": "string"
        },
        {
          "internalType": "uint256",
          "name": "totalCollected",
          "type": "uint256"
        },
        {
          "internalType": "bool",
          "name": "withdrawn",
          "type": "bool"
        }
      ],
      "stateMutability": "view",
      "type": "function"
    },
    {
      "inputs": [
        {
          "components": [
            {
              "internalType": "string",
              "name": "name",
              "type": "string"
            },
            {
              "internalType": "string",
              "name": "description",
              "type": "string"
            },
            {
              "internalType": "uint256",
              "name": "goal",
              "type": "uint256"
            },
            {
              "internalType": "uint256",
              "name": "minDonation",
              "type": "uint256"
            },
            {
              "internalType": "uint256",
              "name": "duration",
              "type": "uint256"
            },
            {
              "internalType": "address",
              "name": "beneficiary",
              "type": "address"
            },
            {
              "internalType": "string",
              "name": "image",
              "type": "string"
            }
          ],
          "internalType": "struct Fundraising.CampaignRequest",
          "name": "req",
          "type": "tuple"
        }
      ],
      "name": "createCampaign",
      "outputs": [],
      "stateMutability": "nonpayable",
      "type": "function"
    },
    {
      "inputs": [
        {
          "internalType": "uint256",
          "name": "campaignId",
          "type": "uint256"
        },
        {
          "internalType": "uint256",
          "name": "amount",
          "type": "uint256"
        }
      ],
      "name": "donate",
      "outputs": [],
      "stateMutability": "nonpayable",
      "type": "function"
    },
    {
      "inputs": [
        {
          "internalType": "uint256",
          "name": "",
          "type": "uint256"
        },
        {
          "internalType": "address",
          "name": "",
          "type": "address"
        }
      ],
      "name": "donations",
      "outputs": [
        {
          "internalType": "uint256",
          "name": "",
          "type": "uint256"
        }
      ],
      "stateMutability": "view",
      "type": "function"
    },
    {
      "inputs": [
        {
          "internalType": "uint256",
          "name": "id",
          "type": "uint256"
        }
      ],
      "name": "getCampaign",
      "outputs": [
        {
          "components": [
            {
              "internalType": "string",
              "name": "name",
              "type": "string"
            },
            {
              "internalType": "string",
              "name": "description",
              "type": "string"
            },
            {
              "internalType": "uint256",
              "name": "goal",
              "type": "uint256"
            },
            {
              "internalType": "uint256",
              "name": "minDonation",
              "type": "uint256"
            },
            {
              "internalType": "uint256",
              "name": "deadline",
              "type": "uint256"
            },
            {
              "internalType": "address",
              "name": "beneficiary",
              "type": "address"
            },
            {
              "internalType": "address",
              "name": "creator",
              "type": "address"
            },
            {
              "internalType": "address",
              "name": "token",
              "type": "address"
            },
            {
              "internalType": "string",
              "name": "image",
              "type": "string"
            },
            {
              "internalType": "uint256",
              "name": "totalCollected",
              "type": "uint256"
            },
            {
              "internalType": "bool",
              "name": "withdrawn",
              "type": "bool"
            }
          ],
          "internalType": "struct Fundraising.Campaign",
          "name": "",
          "type": "tuple"
        }
      ],
      "stateMutability": "view",
      "type": "function"
    },
    {
      "inputs": [
        {
          "internalType": "uint256",
          "name": "campaignId",
          "type": "uint256"
        }
      ],
      "name": "refund",
      "outputs": [],
      "stateMutability": "nonpayable",
      "type": "function"
    },
    {
      "inputs": [],
      "name": "usdcToken",
      "outputs": [
        {
          "internalType": "address",
          "name": "",
          "type": "address"
        }
      ],
      "stateMutability": "view",
      "type": "function"
    },
    {
      "inputs": [
        {
          "internalType": "uint256",
          "name": "campaignId",
          "type": "uint256"
        }
      ],
      "name": "withdrawFunds",
      "outputs": [],
      "stateMutability": "nonpayable",
      "type": "function"
    }
  ],
  "bytecode": "0x60803461007457601f61127638819003918201601f19168301916001600160401b038311848410176100795780849260209460405283398101031261007457516001600160a01b0381169081900361007457600280546001600160a01b0319169190911790556040516111e690816100908239f35b600080fd5b634e487b7160e01b600052604160045260246000fdfe6080604052600436101561001257600080fd5b60003560e01c80630cdd53f614610dac57806311eac85514610d83578063141961bc14610c92578063155dd5ee14610ace578063278ecde11461090c5780635598f8cc146107395780637274e30d1461071b57806392eb8a02146100d15763ee1554a31461007f57600080fd5b346100cc5760403660031901126100cc576024356001600160a01b038116908190036100cc5760043560005260016020526040600020906000526020526020604060002054604051908152f35b600080fd5b346100cc576003196020368201126100cc576004359067ffffffffffffffff82116100cc5760e09082360301126100cc576040519060e0820182811067ffffffffffffffff82111761054057604052806004013567ffffffffffffffff81116100cc5761014490600436918401016110be565b8252602481013567ffffffffffffffff81116100cc5761016a90600436918401016110be565b9160208101928352604081019160448101358352606082019060648101358252608083016084820135815260a48201359160018060a01b03831683036100cc5760a0850192835260c48101359067ffffffffffffffff82116100cc5760046101d592369201016110be565b9360c081019485528151156106e3576101f79051965195519351915142611115565b915160025494516040519790966001600160a01b039687169690921694919061021f89610f99565b8852602088015260408701526060860152608085015260a08401523360c084015260e083015261010082015260006101208201526000610140820152600054680100000000000000008110156105405780600161027f9201600055610f11565b9190916106cd57805191825167ffffffffffffffff8111610540576102a48254610f5f565b601f8111610689575b506020601f82116001146106215781929394600092610616575b50508160011b916000199060031b1c19161781555b602082015191825167ffffffffffffffff8111610540576103006001840154610f5f565b601f81116105cf575b506020601f82116001146105615781929394600092610556575b50508160011b916000199060031b1c19161760018301555b60408101516002830155606081015160038301556080810151600483015560a08101516005830180546001600160a01b039283166001600160a01b03199182161790915560c083015160068501805491841691831691909117905560e08301516007850180549190931691161790556101008101518051909290600882019067ffffffffffffffff8111610540576103d38254610f5f565b601f81116104f8575b506020601f8211600114610489579080600a949392610140969760009261047e575b50508160011b916000199060031b1c19161790555b610120840151600982015501910151151560ff8019835416911617905560005460001981019081116104685733907f633109eec20320eded000fc1e2634211aa7e92ba3f5b15faf6dcdafca05094e4600080a3005b634e487b7160e01b600052601160045260246000fd5b0151905087806103fe565b601f198216958360005260206000209660005b8181106104e05750966001928492600a979695610140999a106104c7575b505050811b019055610413565b015160001960f88460031b161c191690558780806104ba565b8383015189556001909801976020938401930161049c565b826000526020600020601f830160051c81019160208410610536575b601f0160051c01905b81811061052a57506103dc565b6000815560010161051d565b9091508190610514565b634e487b7160e01b600052604160045260246000fd5b015190508480610323565b6001840160005260206000209060005b601f19841681106105b75750600193949583601f1981161061059e575b505050811b01600183015561033b565b015160001960f88460031b161c1916905584808061058e565b9091602060018192858a015181550193019101610571565b600184016000526020600020601f830160051c81016020841061060f575b601f830160051c82018110610603575050610309565b600081556001016105ed565b50806105ed565b0151905084806102c7565b8260005260206000209060005b601f19841681106106715750600193949583601f19811610610658575b505050811b0181556102dc565b015160001960f88460031b161c1916905584808061064b565b9091602060018192858a01518155019301910161062e565b826000526020600020601f830160051c8101602084106106c6575b601f830160051c820181106106ba5750506102ad565b600081556001016106a4565b50806106a4565b634e487b7160e01b600052600060045260246000fd5b60405162461bcd60e51b815260206004820152601060248201526f24b73b30b634b210323ab930ba34b7b760811b6044820152606490fd5b346100cc5760003660031901126100cc576020600054604051908152f35b346100cc5760203660031901126100cc57600061014060405161075b81610f99565b60608152606060208201528260408201528260608201528260808201528260a08201528260c08201528260e082015260606101008201528261012082015201526107a6600435610f11565b5060ff600a604051926107b884610f99565b6107c181610fd8565b84526107cf60018201610fd8565b602085015260028101546040850152600381015460608501526004810154608085015260058101546001600160a01b0390811660a08601526006820154811660c086015260078201541660e085015261082a60088201610fd8565b610100850152600981015461012085015201541615156101408201526040518091602082526101406108f36108866108708451610160602088015261018087019061107e565b6020850151868203601f1901604088015261107e565b6040840151606086015260608401516080860152608084015160a086015260018060a01b0360a08501511660c086015260018060a01b0360c08501511660e086015260018060a01b0360e085015116610100860152610100840151601f198683030161012087015261107e565b9161012081015182850152015115156101608301520390f35b346100cc576020806003193601126100cc5760043561092a81610f11565b509161093c6004840154421015611178565b600983015460028401541115610a9f5781600052600181526040600020336000528152604060002054928315610a6c5760008381526001835260408082203380845290855281832083905560079390930154905163a9059cbb60e01b81526004810193909352602483018690528391839160449183916001600160a01b03165af1908115610a6057600091610a33575b50156109ff577f7ca5472b7ea78c2c0141c5a12ee6d170cf4ce8ed06be3d22c8252ddfc7a6a2c4906040519384523393a3005b6064906040519062461bcd60e51b82526004820152600d60248201526c1499599d5b990819985a5b1959609a1b6044820152fd5b610a539150823d8411610a59575b610a4b8183610fb6565b810190611122565b846109cc565b503d610a41565b6040513d6000823e3d90fd5b60405162461bcd60e51b815260048101839052600b60248201526a2737903237b730ba34b7b760a91b6044820152606490fd5b6064906040519062461bcd60e51b82526004820152600860248201526711dbd85b081b595d60c21b6044820152fd5b346100cc576020806003193601126100cc5760043590610aed82610f11565b50600681015490926001600160a01b0392909183163303610c6057600a84019283549460ff8616610c2757610b286004820154421015611178565b600981019485549660028301548810610bf35760ff1916600117905560078101546005909101805460405163a9059cbb60e01b81526001600160a01b039185169190911660048201526024810197909752949593949083908590604490829060009087165af1938415610a60577ff440aec6b52895984d061d622e6edeba6210f7c3e059be920663140c084560d794610bc991600091610bd6575b5061113a565b54169354604051908152a3005b610bed9150853d8711610a5957610a4b8183610fb6565b88610bc3565b60405162461bcd60e51b815260048101869052600c60248201526b11dbd85b081b9bdd081b595d60a21b6044820152606490fd5b60405162461bcd60e51b815260048101849052601160248201527020b63932b0b23c903bb4ba34323930bbb760791b6044820152606490fd5b6064906040519062461bcd60e51b82526004820152600b60248201526a2737ba1031b932b0ba37b960a91b6044820152fd5b346100cc5760203660031901126100cc576004356000548110156100cc57610cbc610d3591610f11565b50610cc681610fd8565b90610cd360018201610fd8565b610d7060028301546003840154600485015460018060a01b0380600588015416816006890154169160078901541692610d0e60088a01610fd8565b94610d4360ff600a60098d01549c015416996040519d8e9d8e61016090818152019061107e565b8d810360208f01529061107e565b9660408c015260608b015260808a015260a089015260c088015260e087015285820361010087015261107e565b9161012084015215156101408301520390f35b346100cc5760003660031901126100cc576002546040516001600160a01b039091168152602090f35b346100cc5760403660031901126100cc57602435600435610dcc81610f11565b5060048101544211610edb5760038101548310610e9d5760078101546040516323b872dd60e01b815233600482015230602482015260448101859052916020918290849060649082906000906001600160a01b03165af1908115610a6057610e5f6009927f0b5b4c52969ff7329ecf7ee536409fda87812b15a8622bc6e8cdeab3aee14a2695600091610bd6575061113a565b01610e6b858254611115565b9055826000526001815260406000203360005281526040600020610e90858254611115565b90556040519384523393a3005b60405162461bcd60e51b8152602060048201526016602482015275446f6e6174696f6e2062656c6f77206d696e696d756d60501b6044820152606490fd5b60405162461bcd60e51b815260206004820152600e60248201526d10d85b5c185a59db88195b99195960921b6044820152606490fd5b906000918254811015610f4b57600b90838052027f290decd9548b62a8d60345a988386fc84ba6bc95484008f6362f93160ef3e563019190565b634e487b7160e01b83526032600452602483fd5b90600182811c92168015610f8f575b6020831014610f7957565b634e487b7160e01b600052602260045260246000fd5b91607f1691610f6e565b610160810190811067ffffffffffffffff82111761054057604052565b90601f8019910116810190811067ffffffffffffffff82111761054057604052565b9060405191826000825492610fec84610f5f565b90818452600194858116908160001461105b5750600114611018575b505061101692500383610fb6565b565b9093915060005260209081600020936000915b81831061104357505061101693508201013880611008565b8554888401850152948501948794509183019161102b565b91505061101694506020925060ff191682840152151560051b8201013880611008565b919082519283825260005b8481106110aa575050826000602080949584010152601f8019910116010190565b602081830181015184830182015201611089565b81601f820112156100cc5780359067ffffffffffffffff821161054057604051926110f3601f8401601f191660200185610fb6565b828452602083830101116100cc57816000926020809301838601378301015290565b9190820180921161046857565b908160209103126100cc575180151581036100cc5790565b1561114157565b60405162461bcd60e51b815260206004820152600f60248201526e151c985b9cd9995c8819985a5b1959608a1b6044820152606490fd5b1561117f57565b60405162461bcd60e51b8152602060048201526009602482015268546f6f206561726c7960b81b6044820152606490fdfea26469706673582212200b38bdb0b71942a94d4335fefd9ed5fa29d0390bd64604bb99de39e015d32be664736f6c63430008140033",
  "linkReferences": {},
  "deployedLinkReferences": {}
}