{"contracts/Fundraising.sol":{"Fundraising":{"abi":[{"anonymous":false,"inputs":[{"indexed":false,"internalType":"uint256","name":"campaignId","type":"uint256"},{"indexed":false,"internalType":"address","name":"creator","type":"address"}],"name":"CampaignCreated","type":"event"},{"anonymous":false,"inputs":[{"indexed":false,"internalType":"uint256","name":"campaignId","type":"uint256"},{"indexed":false,"internalType":"address","name":"donor","type":"address"},{"indexed":false,"internalType":"uint256","name":"amount","type":"uint256"}],"name":"Donated","type":"event"},{"anonymous":false,"inputs":[{"indexed":false,"internalType":"uint256","name":"campaignId","type":"uint256"},{"indexed":false,"internalType":"address","name":"donor","type":"address"},{"indexed":false,"internalType":"uint256","name":"amount","type":"uint256"}],"name":"Refunded","type":"event"},{"anonymous":false,"inputs":[{"indexed":false,"internalType":"uint256","name":"campaignId","type":"uint256"},{"indexed":false,"internalType":"address","name":"creator","type":"address"},{"indexed":false,"internalType":"uint256","name":"amount","type":"uint256"}],"name":"Withdrawn","type":"event"},{"inputs":[],"name":"campaignCount","outputs":[{"internalType":"uint256","name":"","type":"uint256"}],"stateMutability":"view","type":"function"},{"inputs":[{"internalType":"uint256","name":"","type":"uint256"}],"name":"campaigns","outputs":[{"internalType":"string","name":"title","type":"string"},{"internalType":"string","name":"description","type":"string"},{"internalType":"address","name":"creator","type":"address"},{"internalType":"uint256","name":"targetAmount","type":"uint256"},{"internalType":"uint256","name":"minimumDonation","type":"uint256"},{"internalType":"uint256","name":"deadline","type":"uint256"},{"internalType":"address","name":"beneficiary","type":"address"},{"internalType":"address","name":"token","type":"address"},{"internalType":"uint256","name":"totalDonated","type":"uint256"},{"internalType":"bool","name":"withdrawn","type":"bool"}],"stateMutability":"view","type":"function"},{"inputs":[{"internalType":"string","name":"title","type":"string"},{"internalType":"string","name":"description","type":"string"},{"internalType":"uint256","name":"targetAmount","type":"uint256"},{"internalType":"uint256","name":"minimumDonation","type":"uint256"},{"internalType":"uint256","name":"deadline","type":"uint256"},{"internalType":"address","name":"beneficiary","type":"address"},{"internalType":"address","name":"token","type":"address"}],"name":"createCampaign","outputs":[{"internalType":"uint256","name":"","type":"uint256"}],"stateMutability":"nonpayable","type":"function"},{"inputs":[{"internalType":"uint256","name":"campaignId","type":"uint256"},{"internalType":"uint256","name":"amount","type":"uint256"}],"name":"donate","outputs":[],"stateMutability":"nonpayable","type":"function"},{"inputs":[{"internalType":"uint256","name":"","type":"uint256"},{"internalType":"address","name":"","type":"address"}],"name":"donations","outputs":[{"internalType":"uint256","name":"","type":"uint256"}],"stateMutability":"view","type":"function"},{"inputs":[{"internalType":"uint256","name":"campaignId","type":"uint256"}],"name":"refund","outputs":[],"stateMutability":"nonpayable","type":"function"},{"inputs":[{"internalType":"uint256","name":"campaignId","type":"uint256"}],"name":"withdrawFunds","outputs":[],"stateMutability":"nonpayable","type":"function"}],"evm":{"bytecode":{"linkReferences":{},"object":"6080806040523461001657610ee3908161001c8239f35b600080fdfe608080604052600436101561001357600080fd5b60003560e01c9081630cdd53f614610af557508063141961bc14610a26578063155dd5ee14610805578063278ecde1146105d857806354477ea6146100dc5780637274e30d146100be5763ee1554a31461006c57600080fd5b346100b95760403660031901126100b9576024356001600160a01b038116908190036100b95760043560005260026020526040600020906000526020526020604060002054604051908152f35b600080fd5b346100b95760003660031901126100b9576020600054604051908152f35b346100b95760e03660031901126100b95760043567ffffffffffffffff81116100b95761010d903690600401610dd5565b60243567ffffffffffffffff81116100b95761012d903690600401610dd5565b9260a4356001600160a01b03811681036100b95760c435916001600160a01b03831683036100b957426084351115610593576044351561054e576000549360001985146105385760018501600055604051968761014081011067ffffffffffffffff6101408a01111761046b576101b36101bc936001986101408b016040523691610e03565b88523691610e03565b60208601523360408601526044356060860152606435608086015260843560a0860152838060a01b031660c0850152828060a01b031660e084015260006101008401526000610120840152016000526001602052604060002090805191825167ffffffffffffffff811161046b576102348254610c93565b601f81116104f4575b506020601f821160011461048c5781929394600092610481575b50508160011b916000199060031b1c19161781555b602082015180519067ffffffffffffffff821161046b576102906001840154610c93565b601f8111610424575b50602090601f83116001146103ae57918061012094926009946000926103a3575b50508160011b916000199060031b1c19161760018201555b6002810160018060a01b03604086015116906bffffffffffffffffffffffff60a01b9182825416179055606085015160038301556080850151600483015560a085015160058301556006820160018060a01b0360c08701511682825416179055600782019060018060a01b0360e08701511690825416179055610100840151600882015501910151151560ff8019835416911617905560206000547f633109eec20320eded000fc1e2634211aa7e92ba3f5b15faf6dcdafca05094e4604080518381523385820152a1604051908152f35b0151905086806102ba565b906001840160005260206000209160005b601f198516811061040c575092610120949260019260099583601f198116106103f3575b505050811b0160018201556102d2565b015160001960f88460031b161c191690558680806103e3565b919260206001819286850151815501940192016103bf565b600184016000526020600020601f840160051c810160208510610464575b601f830160051c82018110610458575050610299565b60008155600101610442565b5080610442565b634e487b7160e01b600052604160045260246000fd5b015190508480610257565b8260005260206000209060005b601f19841681106104dc5750600193949583601f198116106104c3575b505050811b01815561026c565b015160001960f88460031b161c191690558480806104b6565b9091602060018192858a015181550193019101610499565b826000526020600020601f830160051c810160208410610531575b601f830160051c8201811061052557505061023d565b6000815560010161050f565b508061050f565b634e487b7160e01b600052601160045260246000fd5b60405162461bcd60e51b815260206004820152601760248201527f546172676574206d75737420626520706f7369746976650000000000000000006044820152606490fd5b60405162461bcd60e51b815260206004820152601a60248201527f446561646c696e65206d75737420626520696e206675747572650000000000006044820152606490fd5b346100b9576020806003193601126100b957600435806000526001825260406000209060058201544211156107c85760088201546003830154111561078e57806000526002835260406000203360005283526040600020549182156107555760008281526002855260408082203380845290875281832083905560079390930154905163a9059cbb60e01b81526004810193909352602483018590528591839160449183916001600160a01b03165af19081156107495760009161071c575b50156106de57604080519182523360208301528101919091527f7ca5472b7ea78c2c0141c5a12ee6d170cf4ce8ed06be3d22c8252ddfc7a6a2c4915080606081015b0390a1005b60405162461bcd60e51b81526004810184905260166024820152751499599d5b99081d1c985b9cd9995c8819985a5b195960521b6044820152606490fd5b61073c9150843d8611610742575b6107348183610ccd565b810190610e4a565b84610697565b503d61072a565b6040513d6000823e3d90fd5b60405162461bcd60e51b8152600481018590526011602482015270139bc8191bdb985d1a5bdb88199bdd5b99607a1b6044820152606490fd5b60405162461bcd60e51b815260048101849052601260248201527115185c99d95d081dd85cc81c995858da195960721b6044820152606490fd5b60405162461bcd60e51b815260048101849052601560248201527443616d706169676e207374696c6c2061637469766560581b6044820152606490fd5b346100b9576020806003193601126100b95760043580600052600182526040600020906002820160018060a01b03908181541633036109f35760058401544211156109b55760088401938454906003810154821061097b5760098101805460ff811661094257600160ff1991909116179055600781015460069091015460405163a9059cbb60e01b81529085166001600160a01b0316600482015260248101929092529092919086908490604490829060009087165af1958615610749577fcf7d23a3cbe4e8b36ff82fd1b05b1b17373dc7804b4ebbd6e2356716ef202372966106d9946108fc92600092610925575b5050610e62565b54169254604051938493846040919493926060820195825260018060a01b031660208201520152565b61093b9250803d10610742576107348183610ccd565b88806108f5565b60405162461bcd60e51b8152600481018a9052601160248201527020b63932b0b23c903bb4ba34323930bbb760791b6044820152606490fd5b60405162461bcd60e51b815260048101889052601260248201527115185c99d95d081b9bdd081c995858da195960721b6044820152606490fd5b60405162461bcd60e51b815260048101869052601660248201527543616d706169676e207374696c6c2072756e6e696e6760501b6044820152606490fd5b60405162461bcd60e51b815260048101869052600b60248201526a2737ba1031b932b0ba37b960a91b6044820152606490fd5b346100b95760203660031901126100b9576004356000526001602052610ab66040600020610a5381610cef565b90610a6060018201610cef565b60018060a01b039182600282015416926003820154906004830154600584015490826006860154169260078601541693610ac460ff6009600889015498015416976040519b8c9b8c6101408091528d0190610d95565b908b820360208d0152610d95565b9760408a01526060890152608088015260a087015260c086015260e085015261010084015215156101208301520390f35b346100b95760403660031901126100b95760043560243590806000526020926001845260406000209060058201544211610c5c575060048101548310610c1e5760078101546040516323b872dd60e01b8152336004820152306024820152604481018590529491908290869060649082906000906001600160a01b03165af191821561074957610bb16008937f1b606d34afacd55873aba0fd274841a10c63e18455f2dffebad2fc60a36b2c8397600091610c01575b50610e62565b836000526002815260406000209033600052526040600020610bd4858254610ea0565b905501610be2838254610ea0565b90556040805191825233602083015281019190915280606081016106d9565b610c189150833d8511610742576107348183610ccd565b88610bab565b60405162461bcd60e51b8152600481018590526016602482015275446f6e6174696f6e2062656c6f77206d696e696d756d60501b6044820152606490fd5b62461bcd60e51b815260048101859052601260248201527110d85b5c185a59db881a185cc8195b99195960721b6044820152606490fd5b90600182811c92168015610cc3575b6020831014610cad57565b634e487b7160e01b600052602260045260246000fd5b91607f1691610ca2565b90601f8019910116810190811067ffffffffffffffff82111761046b57604052565b9060405191826000825492610d0384610c93565b908184526001948581169081600014610d725750600114610d2f575b5050610d2d92500383610ccd565b565b9093915060005260209081600020936000915b818310610d5a575050610d2d93508201013880610d1f565b85548884018501529485019487945091830191610d42565b915050610d2d94506020925060ff191682840152151560051b8201013880610d1f565b919082519283825260005b848110610dc1575050826000602080949584010152601f8019910116010190565b602081830181015184830182015201610da0565b9181601f840112156100b95782359167ffffffffffffffff83116100b957602083818601950101116100b957565b92919267ffffffffffffffff821161046b5760405191610e2d601f8201601f191660200184610ccd565b8294818452818301116100b9578281602093846000960137010152565b908160209103126100b9575180151581036100b95790565b15610e6957565b60405162461bcd60e51b815260206004820152600f60248201526e151c985b9cd9995c8819985a5b1959608a1b6044820152606490fd5b919082018092116105385756fea264697066735822122004de2e4aee118732584baf320f945a8d0905d3eb9c8cbf0845f4609167ce9fc164736f6c63430008140033","opcodes":"PUSH1 0x80 DUP1 PUSH1 0x40 MSTORE CALLVALUE PUSH2 0x16 JUMPI PUSH2 0xEE3 SWAP1 DUP2 PUSH2 0x1C DUP3 CODECOPY RETURN JUMPDEST PUSH1 0x0 DUP1 REVERT INVALID PUSH1 0x80 DUP1 PUSH1 0x40 MSTORE PUSH1 0x4 CALLDATASIZE LT ISZERO PUSH2 0x13 JUMPI PUSH1 0x0 DUP1 REVERT JUMPDEST PUSH1 0x0 CALLDATALOAD PUSH1 0xE0 SHR SWAP1 DUP2 PUSH4 0xCDD53F6 EQ PUSH2 0xAF5 JUMPI POP DUP1 PUSH4 0x141961BC EQ PUSH2 0xA26 JUMPI DUP1 PUSH4 0x155DD5EE EQ PUSH2 0x805 JUMPI DUP1 PUSH4 0x278ECDE1 EQ PUSH2 0x5D8 JUMPI DUP1 PUSH4 0x54477EA6 EQ PUSH2 0xDC JUMPI DUP1 PUSH4 0x7274E30D EQ PUSH2 0xBE JUMPI PUSH4 0xEE1554A3 EQ PUSH2 0x6C JUMPI PUSH1 0x0 DUP1 REVERT JUMPDEST CALLVALUE PUSH2 0xB9 JUMPI PUSH1 0x40 CALLDATASIZE PUSH1 0x3 NOT ADD SLT PUSH2 0xB9 JUMPI PUSH1 0x24 CALLDATALOAD PUSH1 0x1 PUSH1 0x1 PUSH1 0xA0 SHL SUB DUP2 AND SWAP1 DUP2 SWAP1 SUB PUSH2 0xB9 JUMPI PUSH1 0x4 CALLDATALOAD PUSH1 0x0 MSTORE PUSH1 0x2 PUSH1 0x20 MSTORE PUSH1 0x40 PUSH1 0x0 KECCAK256 SWAP1 PUSH1 0x0 MSTORE PUSH1 0x20 MSTORE PUSH1 0x20 PUSH1 0x40 PUSH1 0x0 KECCAK256 SLOAD PUSH1 0x40 MLOAD SWAP1 DUP2 MSTORE RETURN JUMPDEST PUSH1 0x0 DUP1 REVERT JUMPDEST CALLVALUE PUSH2 0xB9 JUMPI PUSH1 0x0 CALLDATASIZE PUSH1 0x3 NOT ADD SLT PUSH2 0xB9 JUMPI PUSH1 0x20 PUSH1 0x0 SLOAD PUSH1 0x40 MLOAD SWAP1 DUP2 MSTORE RETURN JUMPDEST CALLVALUE PUSH2 0xB9 JUMPI PUSH1 0xE0 CALLDATASIZE PUSH1 0x3 NOT ADD SLT PUSH2 0xB9 JUMPI PUSH1 0x4 CALLDATALOAD PUSH8 0xFFFFFFFFFFFFFFFF DUP2 GT PUSH2 0xB9 JUMPI PUSH2 0x10D SWAP1 CALLDATASIZE SWAP1 PUSH1 0x4 ADD PUSH2 0xDD5 JUMP JUMPDEST PUSH1 0x24 CALLDATALOAD PUSH8 0xFFFFFFFFFFFFFFFF DUP2 GT PUSH2 0xB9 JUMPI PUSH2 0x12D SWAP1 CALLDATASIZE SWAP1 PUSH1 0x4 ADD PUSH2 0xDD5 JUMP JUMPDEST SWAP3 PUSH1 0xA4 CALLDATALOAD PUSH1 0x1 PUSH1 0x1 PUSH1 0xA0 SHL SUB DUP2 AND DUP2 SUB PUSH2 0xB9 JUMPI PUSH1 0xC4 CALLDATALOAD SWAP2 PUSH1 0x1 PUSH1 0x1 PUSH1 0xA0 SHL SUB DUP4 AND DUP4 SUB PUSH2 0xB9 JUMPI TIMESTAMP PUSH1 0x84 CALLDATALOAD GT ISZERO PUSH2 0x593 JUMPI PUSH1 0x44 CALLDATALOAD ISZERO PUSH2 0x54E JUMPI PUSH1 0x0 SLOAD SWAP4 PUSH1 0x0 NOT DUP6 EQ PUSH2 0x538 JUMPI PUSH1 0x1 DUP6 ADD PUSH1 0x0 SSTORE PUSH1 0x40 MLOAD SWAP7 DUP8 PUSH2 0x140 DUP2 ADD LT PUSH8 0xFFFFFFFFFFFFFFFF PUSH2 0x140 DUP11 ADD GT OR PUSH2 0x46B JUMPI PUSH2 0x1B3 PUSH2 0x1BC SWAP4 PUSH1 0x1 SWAP9 PUSH2 0x140 DUP12 ADD PUSH1 0x40 MSTORE CALLDATASIZE SWAP2 PUSH2 0xE03 JUMP JUMPDEST DUP9 MSTORE CALLDATASIZE SWAP2 PUSH2 0xE03 JUMP JUMPDEST PUSH1 0x20 DUP7 ADD MSTORE CALLER PUSH1 0x40 DUP7 ADD MSTORE PUSH1 0x44 CALLDATALOAD PUSH1 0x60 DUP7 ADD MSTORE PUSH1 0x64 CALLDATALOAD PUSH1 0x80 DUP7 ADD MSTORE PUSH1 0x84 CALLDATALOAD PUSH1 0xA0 DUP7 ADD MSTORE DUP4 DUP1 PUSH1 0xA0 SHL SUB AND PUSH1 0xC0 DUP6 ADD MSTORE DUP3 DUP1 PUSH1 0xA0 SHL SUB AND PUSH1 0xE0 DUP5 ADD MSTORE PUSH1 0x0 PUSH2 0x100 DUP5 ADD MSTORE PUSH1 0x0 PUSH2 0x120 DUP5 ADD MSTORE ADD PUSH1 0x0 MSTORE PUSH1 0x1 PUSH1 0x20 MSTORE PUSH1 0x40 PUSH1 0x0 KECCAK256 SWAP1 DUP1 MLOAD SWAP2 DUP3 MLOAD PUSH8 0xFFFFFFFFFFFFFFFF DUP2 GT PUSH2 0x46B JUMPI PUSH2 0x234 DUP3 SLOAD PUSH2 0xC93 JUMP JUMPDEST PUSH1 0x1F DUP2 GT PUSH2 0x4F4 JUMPI JUMPDEST POP PUSH1 0x20 PUSH1 0x1F DUP3 GT PUSH1 0x1 EQ PUSH2 0x48C JUMPI DUP2 SWAP3 SWAP4 SWAP5 PUSH1 0x0 SWAP3 PUSH2 0x481 JUMPI JUMPDEST POP POP DUP2 PUSH1 0x1 SHL SWAP2 PUSH1 0x0 NOT SWAP1 PUSH1 0x3 SHL SHR NOT AND OR DUP2 SSTORE JUMPDEST PUSH1 0x20 DUP3 ADD MLOAD DUP1 MLOAD SWAP1 PUSH8 0xFFFFFFFFFFFFFFFF DUP3 GT PUSH2 0x46B JUMPI PUSH2 0x290 PUSH1 0x1 DUP5 ADD SLOAD PUSH2 0xC93 JUMP JUMPDEST PUSH1 0x1F DUP2 GT PUSH2 0x424 JUMPI JUMPDEST POP PUSH1 0x20 SWAP1 PUSH1 0x1F DUP4 GT PUSH1 0x1 EQ PUSH2 0x3AE JUMPI SWAP2 DUP1 PUSH2 0x120 SWAP5 SWAP3 PUSH1 0x9 SWAP5 PUSH1 0x0 SWAP3 PUSH2 0x3A3 JUMPI JUMPDEST POP POP DUP2 PUSH1 0x1 SHL SWAP2 PUSH1 0x0 NOT SWAP1 PUSH1 0x3 SHL SHR NOT AND OR PUSH1 0x1 DUP3 ADD SSTORE JUMPDEST PUSH1 0x2 DUP2 ADD PUSH1 0x1 DUP1 PUSH1 0xA0 SHL SUB PUSH1 0x40 DUP7 ADD MLOAD AND SWAP1 PUSH12 0xFFFFFFFFFFFFFFFFFFFFFFFF PUSH1 0xA0 SHL SWAP2 DUP3 DUP3 SLOAD AND OR SWAP1 SSTORE PUSH1 0x60 DUP6 ADD MLOAD PUSH1 0x3 DUP4 ADD SSTORE PUSH1 0x80 DUP6 ADD MLOAD PUSH1 0x4 DUP4 ADD SSTORE PUSH1 0xA0 DUP6 ADD MLOAD PUSH1 0x5 DUP4 ADD SSTORE PUSH1 0x6 DUP3 ADD PUSH1 0x1 DUP1 PUSH1 0xA0 SHL SUB PUSH1 0xC0 DUP8 ADD MLOAD AND DUP3 DUP3 SLOAD AND OR SWAP1 SSTORE PUSH1 0x7 DUP3 ADD SWAP1 PUSH1 0x1 DUP1 PUSH1 0xA0 SHL SUB PUSH1 0xE0 DUP8 ADD MLOAD AND SWAP1 DUP3 SLOAD AND OR SWAP1 SSTORE PUSH2 0x100 DUP5 ADD MLOAD PUSH1 0x8 DUP3 ADD SSTORE ADD SWAP2 ADD MLOAD ISZERO ISZERO PUSH1 0xFF DUP1 NOT DUP4 SLOAD AND SWAP2 AND OR SWAP1 SSTORE PUSH1 0x20 PUSH1 0x0 SLOAD PUSH32 0x633109EEC20320EDED000FC1E2634211AA7E92BA3F5B15FAF6DCDAFCA05094E4 PUSH1 0x40 DUP1 MLOAD DUP4 DUP2 MSTORE CALLER DUP6 DUP3 ADD MSTORE LOG1 PUSH1 0x40 MLOAD SWAP1 DUP2 MSTORE RETURN JUMPDEST ADD MLOAD SWAP1 POP DUP7 DUP1 PUSH2 0x2BA JUMP JUMPDEST SWAP1 PUSH1 0x1 DUP5 ADD PUSH1 0x0 MSTORE PUSH1 0x20 PUSH1 0x0 KECCAK256 SWAP2 PUSH1 0x0 JUMPDEST PUSH1 0x1F NOT DUP6 AND DUP2 LT PUSH2 0x40C JUMPI POP SWAP3 PUSH2 0x120 SWAP5 SWAP3 PUSH1 0x1 SWAP3 PUSH1 0x9 SWAP6 DUP4 PUSH1 0x1F NOT DUP2 AND LT PUSH2 0x3F3 JUMPI JUMPDEST POP POP POP DUP2 SHL ADD PUSH1 0x1 DUP3 ADD SSTORE PUSH2 0x2D2 JUMP JUMPDEST ADD MLOAD PUSH1 0x0 NOT PUSH1 0xF8 DUP5 PUSH1 0x3 SHL AND SHR NOT AND SWAP1 SSTORE DUP7 DUP1 DUP1 PUSH2 0x3E3 JUMP JUMPDEST SWAP2 SWAP3 PUSH1 0x20 PUSH1 0x1 DUP2 SWAP3 DUP7 DUP6 ADD MLOAD DUP2 SSTORE ADD SWAP5 ADD SWAP3 ADD PUSH2 0x3BF JUMP JUMPDEST PUSH1 0x1 DUP5 ADD PUSH1 0x0 MSTORE PUSH1 0x20 PUSH1 0x0 KECCAK256 PUSH1 0x1F DUP5 ADD PUSH1 0x5 SHR DUP2 ADD PUSH1 0x20 DUP6 LT PUSH2 0x464 JUMPI JUMPDEST PUSH1 0x1F DUP4 ADD PUSH1 0x5 SHR DUP3 ADD DUP2 LT PUSH2 0x458 JUMPI POP POP PUSH2 0x299 JUMP JUMPDEST PUSH1 0x0 DUP2 SSTORE PUSH1 0x1 ADD PUSH2 0x442 JUMP JUMPDEST POP DUP1 PUSH2 0x442 JUMP JUMPDEST PUSH4 0x4E487B71 PUSH1 0xE0 SHL PUSH1 0x0 MSTORE PUSH1 0x41 PUSH1 0x4 MSTORE PUSH1 0x24 PUSH1 0x0 REVERT JUMPDEST ADD MLOAD SWAP1 POP DUP5 DUP1 PUSH2 0x257 JUMP JUMPDEST DUP3 PUSH1 0x0 MSTORE PUSH1 0x20 PUSH1 0x0 KECCAK256 SWAP1 PUSH1 0x0 JUMPDEST PUSH1 0x1F NOT DUP5 AND DUP2 LT PUSH2 0x4DC JUMPI POP PUSH1 0x1 SWAP4 SWAP5 SWAP6 DUP4 PUSH1 0x1F NOT DUP2 AND LT PUSH2 0x4C3 JUMPI JUMPDEST POP POP POP DUP2 SHL ADD DUP2 SSTORE PUSH2 0x26C JUMP JUMPDEST ADD MLOAD PUSH1 0x0 NOT PUSH1 0xF8 DUP5 PUSH1 0x3 SHL AND SHR NOT AND SWAP1 SSTORE DUP5 DUP1 DUP1 PUSH2 0x4B6 JUMP JUMPDEST SWAP1 SWAP2 PUSH1 0x20 PUSH1 0x1 DUP2 SWAP3 DUP6 DUP11 ADD MLOAD DUP2 SSTORE ADD SWAP4 ADD SWAP2 ADD PUSH2 0x499 JUMP JUMPDEST DUP3 PUSH1 0x0 MSTORE PUSH1 0x20 PUSH1 0x0 KECCAK256 PUSH1 0x1F DUP4 ADD PUSH1 0x5 SHR DUP2 ADD PUSH1 0x20 DUP5 LT PUSH2 0x531 JUMPI JUMPDEST PUSH1 0x1F DUP4 ADD PUSH1 0x5 SHR DUP3 ADD DUP2 LT PUSH2 0x525 JUMPI POP POP PUSH2 0x23D JUMP JUMPDEST PUSH1 0x0 DUP2 SSTORE PUSH1 0x1 ADD PUSH2 0x50F JUMP JUMPDEST POP DUP1 PUSH2 0x50F JUMP JUMPDEST PUSH4 0x4E487B71 PUSH1 0xE0 SHL PUSH1 0x0 MSTORE PUSH1 0x11 PUSH1 0x4 MSTORE PUSH1 0x24 PUSH1 0x0 REVERT JUMPDEST PUSH1 0x40 MLOAD PUSH3 0x461BCD PUSH1 0xE5 SHL DUP2 MSTORE PUSH1 0x20 PUSH1 0x4 DUP3 ADD MSTORE PUSH1 0x17 PUSH1 0x24 DUP3 ADD MSTORE PUSH32 0x546172676574206D75737420626520706F736974697665000000000000000000 PUSH1 0x44 DUP3 ADD MSTORE PUSH1 0x64 SWAP1 REVERT JUMPDEST PUSH1 0x40 MLOAD PUSH3 0x461BCD PUSH1 0xE5 SHL DUP2 MSTORE PUSH1 0x20 PUSH1 0x4 DUP3 ADD MSTORE PUSH1 0x1A PUSH1 0x24 DUP3 ADD MSTORE PUSH32 0x446561646C696E65206D75737420626520696E20667574757265000000000000 PUSH1 0x44 DUP3 ADD MSTORE PUSH1 0x64 SWAP1 REVERT JUMPDEST CALLVALUE PUSH2 0xB9 JUMPI PUSH1 0x20 DUP1 PUSH1 0x3 NOT CALLDATASIZE ADD SLT PUSH2 0xB9 JUMPI PUSH1 0x4 CALLDATALOAD DUP1 PUSH1 0x0 MSTORE PUSH1 0x1 DUP3 MSTORE PUSH1 0x40 PUSH1 0x0 KECCAK256 SWAP1 PUSH1 0x5 DUP3 ADD SLOAD TIMESTAMP GT ISZERO PUSH2 0x7C8 JUMPI PUSH1 0x8 DUP3 ADD SLOAD PUSH1 0x3 DUP4 ADD SLOAD GT ISZERO PUSH2 0x78E JUMPI DUP1 PUSH1 0x0 MSTORE PUSH1 0x2 DUP4 MSTORE PUSH1 0x40 PUSH1 0x0 KECCAK256 CALLER PUSH1 0x0 MSTORE DUP4 MSTORE PUSH1 0x40 PUSH1 0x0 KECCAK256 SLOAD SWAP2 DUP3 ISZERO PUSH2 0x755 JUMPI PUSH1 0x0 DUP3 DUP2 MSTORE PUSH1 0x2 DUP6 MSTORE PUSH1 0x40 DUP1 DUP3 KECCAK256 CALLER DUP1 DUP5 MSTORE SWAP1 DUP8 MSTORE DUP2 DUP4 KECCAK256 DUP4 SWAP1 SSTORE PUSH1 0x7 SWAP4 SWAP1 SWAP4 ADD SLOAD SWAP1 MLOAD PUSH4 0xA9059CBB PUSH1 0xE0 SHL DUP2 MSTORE PUSH1 0x4 DUP2 ADD SWAP4 SWAP1 SWAP4 MSTORE PUSH1 0x24 DUP4 ADD DUP6 SWAP1 MSTORE DUP6 SWAP2 DUP4 SWAP2 PUSH1 0x44 SWAP2 DUP4 SWAP2 PUSH1 0x1 PUSH1 0x1 PUSH1 0xA0 SHL SUB AND GAS CALL SWAP1 DUP2 ISZERO PUSH2 0x749 JUMPI PUSH1 0x0 SWAP2 PUSH2 0x71C JUMPI JUMPDEST POP ISZERO PUSH2 0x6DE JUMPI PUSH1 0x40 DUP1 MLOAD SWAP2 DUP3 MSTORE CALLER PUSH1 0x20 DUP4 ADD MSTORE DUP2 ADD SWAP2 SWAP1 SWAP2 MSTORE PUSH32 0x7CA5472B7EA78C2C0141C5A12EE6D170CF4CE8ED06BE3D22C8252DDFC7A6A2C4 SWAP2 POP DUP1 PUSH1 0x60 DUP2 ADD JUMPDEST SUB SWAP1 LOG1 STOP JUMPDEST PUSH1 0x40 MLOAD PUSH3 0x461BCD PUSH1 0xE5 SHL DUP2 MSTORE PUSH1 0x4 DUP2 ADD DUP5 SWAP1 MSTORE PUSH1 0x16 PUSH1 0x24 DUP3 ADD MSTORE PUSH22 0x1499599D5B99081D1C985B9CD9995C8819985A5B1959 PUSH1 0x52 SHL PUSH1 0x44 DUP3 ADD MSTORE PUSH1 0x64 SWAP1 REVERT JUMPDEST PUSH2 0x73C SWAP2 POP DUP5 RETURNDATASIZE DUP7 GT PUSH2 0x742 JUMPI JUMPDEST PUSH2 0x734 DUP2 DUP4 PUSH2 0xCCD JUMP JUMPDEST DUP2 ADD SWAP1 PUSH2 0xE4A JUMP JUMPDEST DUP5 PUSH2 0x697 JUMP JUMPDEST POP RETURNDATASIZE PUSH2 0x72A JUMP JUMPDEST PUSH1 0x40 MLOAD RETURNDATASIZE PUSH1 0x0 DUP3 RETURNDATACOPY RETURNDATASIZE SWAP1 REVERT JUMPDEST PUSH1 0x40 MLOAD PUSH3 0x461BCD PUSH1 0xE5 SHL DUP2 MSTORE PUSH1 0x4 DUP2 ADD DUP6 SWAP1 MSTORE PUSH1 0x11 PUSH1 0x24 DUP3 ADD MSTORE PUSH17 0x139BC8191BDB985D1A5BDB88199BDD5B99 PUSH1 0x7A SHL PUSH1 0x44 DUP3 ADD MSTORE PUSH1 0x64 SWAP1 REVERT JUMPDEST PUSH1 0x40 MLOAD PUSH3 0x461BCD PUSH1 0xE5 SHL DUP2 MSTORE PUSH1 0x4 DUP2 ADD DUP5 SWAP1 MSTORE PUSH1 0x12 PUSH1 0x24 DUP3 ADD MSTORE PUSH18 0x15185C99D95D081DD85CC81C995858DA1959 PUSH1 0x72 SHL PUSH1 0x44 DUP3 ADD MSTORE PUSH1 0x64 SWAP1 REVERT JUMPDEST PUSH1 0x40 MLOAD PUSH3 0x461BCD PUSH1 0xE5 SHL DUP2 MSTORE PUSH1 0x4 DUP2 ADD DUP5 SWAP1 MSTORE PUSH1 0x15 PUSH1 0x24 DUP3 ADD MSTORE PUSH21 0x43616D706169676E207374696C6C20616374697665 PUSH1 0x58 SHL PUSH1 0x44 DUP3 ADD MSTORE PUSH1 0x64 SWAP1 REVERT JUMPDEST CALLVALUE PUSH2 0xB9 JUMPI PUSH1 0x20 DUP1 PUSH1 0x3 NOT CALLDATASIZE ADD SLT PUSH2 0xB9 JUMPI PUSH1 0x4 CALLDATALOAD DUP1 PUSH1 0x0 MSTORE PUSH1 0x1 DUP3 MSTORE PUSH1 0x40 PUSH1 0x0 KECCAK256 SWAP1 PUSH1 0x2 DUP3 ADD PUSH1 0x1 DUP1 PUSH1 0xA0 SHL SUB SWAP1 DUP2 DUP2 SLOAD AND CALLER SUB PUSH2 0x9F3 JUMPI PUSH1 0x5 DUP5 ADD SLOAD TIMESTAMP GT ISZERO PUSH2 0x9B5 JUMPI PUSH1 0x8 DUP5 ADD SWAP4 DUP5 SLOAD SWAP1 PUSH1 0x3 DUP2 ADD SLOAD DUP3 LT PUSH2 0x97B JUMPI PUSH1 0x9 DUP2 ADD DUP1 SLOAD PUSH1 0xFF DUP2 AND PUSH2 0x942 JUMPI PUSH1 0x1 PUSH1 0xFF NOT SWAP2 SWAP1 SWAP2 AND OR SWAP1 SSTORE PUSH1 0x7 DUP2 ADD SLOAD PUSH1 0x6 SWAP1 SWAP2 ADD SLOAD PUSH1 0x40 MLOAD PUSH4 0xA9059CBB PUSH1 0xE0 SHL DUP2 MSTORE SWAP1 DUP6 AND PUSH1 0x1 PUSH1 0x1 PUSH1 0xA0 SHL SUB AND PUSH1 0x4 DUP3 ADD MSTORE PUSH1 0x24 DUP2 ADD SWAP3 SWAP1 SWAP3 MSTORE SWAP1 SWAP3 SWAP2 SWAP1 DUP7 SWAP1 DUP5 SWAP1 PUSH1 0x44 SWAP1 DUP3 SWAP1 PUSH1 0x0 SWAP1 DUP8 AND GAS CALL SWAP6 DUP7 ISZERO PUSH2 0x749 JUMPI PUSH32 0xCF7D23A3CBE4E8B36FF82FD1B05B1B17373DC7804B4EBBD6E2356716EF202372 SWAP7 PUSH2 0x6D9 SWAP5 PUSH2 0x8FC SWAP3 PUSH1 0x0 SWAP3 PUSH2 0x925 JUMPI JUMPDEST POP POP PUSH2 0xE62 JUMP JUMPDEST SLOAD AND SWAP3 SLOAD PUSH1 0x40 MLOAD SWAP4 DUP5 SWAP4 DUP5 PUSH1 0x40 SWAP2 SWAP5 SWAP4 SWAP3 PUSH1 0x60 DUP3 ADD SWAP6 DUP3 MSTORE PUSH1 0x1 DUP1 PUSH1 0xA0 SHL SUB AND PUSH1 0x20 DUP3 ADD MSTORE ADD MSTORE JUMP JUMPDEST PUSH2 0x93B SWAP3 POP DUP1 RETURNDATASIZE LT PUSH2 0x742 JUMPI PUSH2 0x734 DUP2 DUP4 PUSH2 0xCCD JUMP JUMPDEST DUP9 DUP1 PUSH2 0x8F5 JUMP JUMPDEST PUSH1 0x40 MLOAD PUSH3 0x461BCD PUSH1 0xE5 SHL DUP2 MSTORE PUSH1 0x4 DUP2 ADD DUP11 SWAP1 MSTORE PUSH1 0x11 PUSH1 0x24 DUP3 ADD MSTORE PUSH17 0x20B63932B0B23C903BB4BA34323930BBB7 PUSH1 0x79 SHL PUSH1 0x44 DUP3 ADD MSTORE PUSH1 0x64 SWAP1 REVERT JUMPDEST PUSH1 0x40 MLOAD PUSH3 0x461BCD PUSH1 0xE5 SHL DUP2 MSTORE PUSH1 0x4 DUP2 ADD DUP9 SWAP1 MSTORE PUSH1 0x12 PUSH1 0x24 DUP3 ADD MSTORE PUSH18 0x15185C99D95D081B9BDD081C995858DA1959 PUSH1 0x72 SHL PUSH1 0x44 DUP3 ADD MSTORE PUSH1 0x64 SWAP1 REVERT JUMPDEST PUSH1 0x40 MLOAD PUSH3 0x461BCD PUSH1 0xE5 SHL DUP2 MSTORE PUSH1 0x4 DUP2 ADD DUP7 SWAP1 MSTORE PUSH1 0x16 PUSH1 0x24 DUP3 ADD MSTORE PUSH22 0x43616D706169676E207374696C6C2072756E6E696E67 PUSH1 0x50 SHL PUSH1 0x44 DUP3 ADD MSTORE PUSH1 0x64 SWAP1 REVERT JUMPDEST PUSH1 0x40 MLOAD PUSH3 0x461BCD PUSH1 0xE5 SHL DUP2 MSTORE PUSH1 0x4 DUP2 ADD DUP7 SWAP1 MSTORE PUSH1 0xB PUSH1 0x24 DUP3 ADD MSTORE PUSH11 0x2737BA1031B932B0BA37B9 PUSH1 0xA9 SHL PUSH1 0x44 DUP3 ADD MSTORE PUSH1 0x64 SWAP1 REVERT JUMPDEST CALLVALUE PUSH2 0xB9 JUMPI PUSH1 0x20 CALLDATASIZE PUSH1 0x3 NOT ADD SLT PUSH2 0xB9 JUMPI PUSH1 0x4 CALLDATALOAD PUSH1 0x0 MSTORE PUSH1 0x1 PUSH1 0x20 MSTORE PUSH2 0xAB6 PUSH1 0x40 PUSH1 0x0 KECCAK256 PUSH2 0xA53 DUP2 PUSH2 0xCEF JUMP JUMPDEST SWAP1 PUSH2 0xA60 PUSH1 0x1 DUP3 ADD PUSH2 0xCEF JUMP JUMPDEST PUSH1 0x1 DUP1 PUSH1 0xA0 SHL SUB SWAP2 DUP3 PUSH1 0x2 DUP3 ADD SLOAD AND SWAP3 PUSH1 0x3 DUP3 ADD SLOAD SWAP1 PUSH1 0x4 DUP4 ADD SLOAD PUSH1 0x5 DUP5 ADD SLOAD SWAP1 DUP3 PUSH1 0x6 DUP7 ADD SLOAD AND SWAP3 PUSH1 0x7 DUP7 ADD SLOAD AND SWAP4 PUSH2 0xAC4 PUSH1 0xFF PUSH1 0x9 PUSH1 0x8 DUP10 ADD SLOAD SWAP9 ADD SLOAD AND SWAP8 PUSH1 0x40 MLOAD SWAP12 DUP13 SWAP12 DUP13 PUSH2 0x140 DUP1 SWAP2 MSTORE DUP14 ADD SWAP1 PUSH2 0xD95 JUMP JUMPDEST SWAP1 DUP12 DUP3 SUB PUSH1 0x20 DUP14 ADD MSTORE PUSH2 0xD95 JUMP JUMPDEST SWAP8 PUSH1 0x40 DUP11 ADD MSTORE PUSH1 0x60 DUP10 ADD MSTORE PUSH1 0x80 DUP9 ADD MSTORE PUSH1 0xA0 DUP8 ADD MSTORE PUSH1 0xC0 DUP7 ADD MSTORE PUSH1 0xE0 DUP6 ADD MSTORE PUSH2 0x100 DUP5 ADD MSTORE ISZERO ISZERO PUSH2 0x120 DUP4 ADD MSTORE SUB SWAP1 RETURN JUMPDEST CALLVALUE PUSH2 0xB9 JUMPI PUSH1 0x40 CALLDATASIZE PUSH1 0x3 NOT ADD SLT PUSH2 0xB9 JUMPI PUSH1 0x4 CALLDATALOAD PUSH1 0x24 CALLDATALOAD SWAP1 DUP1 PUSH1 0x0 MSTORE PUSH1 0x20 SWAP3 PUSH1 0x1 DUP5 MSTORE PUSH1 0x40 PUSH1 0x0 KECCAK256 SWAP1 PUSH1 0x5 DUP3 ADD SLOAD TIMESTAMP GT PUSH2 0xC5C JUMPI POP PUSH1 0x4 DUP2 ADD SLOAD DUP4 LT PUSH2 0xC1E JUMPI PUSH1 0x7 DUP2 ADD SLOAD PUSH1 0x40 MLOAD PUSH4 0x23B872DD PUSH1 0xE0 SHL DUP2 MSTORE CALLER PUSH1 0x4 DUP3 ADD MSTORE ADDRESS PUSH1 0x24 DUP3 ADD MSTORE PUSH1 0x44 DUP2 ADD DUP6 SWAP1 MSTORE SWAP5 SWAP2 SWAP1 DUP3 SWAP1 DUP7 SWAP1 PUSH1 0x64 SWAP1 DUP3 SWAP1 PUSH1 0x0 SWAP1 PUSH1 0x1 PUSH1 0x1 PUSH1 0xA0 SHL SUB AND GAS CALL SWAP2 DUP3 ISZERO PUSH2 0x749 JUMPI PUSH2 0xBB1 PUSH1 0x8 SWAP4 PUSH32 0x1B606D34AFACD55873ABA0FD274841A10C63E18455F2DFFEBAD2FC60A36B2C83 SWAP8 PUSH1 0x0 SWAP2 PUSH2 0xC01 JUMPI JUMPDEST POP PUSH2 0xE62 JUMP JUMPDEST DUP4 PUSH1 0x0 MSTORE PUSH1 0x2 DUP2 MSTORE PUSH1 0x40 PUSH1 0x0 KECCAK256 SWAP1 CALLER PUSH1 0x0 MSTORE MSTORE PUSH1 0x40 PUSH1 0x0 KECCAK256 PUSH2 0xBD4 DUP6 DUP3 SLOAD PUSH2 0xEA0 JUMP JUMPDEST SWAP1 SSTORE ADD PUSH2 0xBE2 DUP4 DUP3 SLOAD PUSH2 0xEA0 JUMP JUMPDEST SWAP1 SSTORE PUSH1 0x40 DUP1 MLOAD SWAP2 DUP3 MSTORE CALLER PUSH1 0x20 DUP4 ADD MSTORE DUP2 ADD SWAP2 SWAP1 SWAP2 MSTORE DUP1 PUSH1 0x60 DUP2 ADD PUSH2 0x6D9 JUMP JUMPDEST PUSH2 0xC18 SWAP2 POP DUP4 RETURNDATASIZE DUP6 GT PUSH2 0x742 JUMPI PUSH2 0x734 DUP2 DUP4 PUSH2 0xCCD JUMP JUMPDEST DUP9 PUSH2 0xBAB JUMP JUMPDEST PUSH1 0x40 MLOAD PUSH3 0x461BCD PUSH1 0xE5 SHL DUP2 MSTORE PUSH1 0x4 DUP2 ADD DUP6 SWAP1 MSTORE PUSH1 0x16 PUSH1 0x24 DUP3 ADD MSTORE PUSH22 0x446F6E6174696F6E2062656C6F77206D696E696D756D PUSH1 0x50 SHL PUSH1 0x44 DUP3 ADD MSTORE PUSH1 0x64 SWAP1 REVERT JUMPDEST PUSH3 0x461BCD PUSH1 0xE5 SHL DUP2 MSTORE PUSH1 0x4 DUP2 ADD DUP6 SWAP1 MSTORE PUSH1 0x12 PUSH1 0x24 DUP3 ADD MSTORE PUSH18 0x10D85B5C185A59DB881A185CC8195B991959 PUSH1 0x72 SHL PUSH1 0x44 DUP3 ADD MSTORE PUSH1 0x64 SWAP1 REVERT JUMPDEST SWAP1 PUSH1 0x1 DUP3 DUP2 SHR SWAP3 AND DUP1 ISZERO PUSH2 0xCC3 JUMPI JUMPDEST PUSH1 0x20 DUP4 LT EQ PUSH2 0xCAD JUMPI JUMP JUMPDEST PUSH4 0x4E487B71 PUSH1 0xE0 SHL PUSH1 0x0 MSTORE PUSH1 0x22 PUSH1 0x4 MSTORE PUSH1 0x24 PUSH1 0x0 REVERT JUMPDEST SWAP2 PUSH1 0x7F AND SWAP2 PUSH2 0xCA2 JUMP JUMPDEST SWAP1 PUSH1 0x1F DUP1 NOT SWAP2 ADD AND DUP2 ADD SWAP1 DUP2 LT PUSH8 0xFFFFFFFFFFFFFFFF DUP3 GT OR PUSH2 0x46B JUMPI PUSH1 0x40 MSTORE JUMP JUMPDEST SWAP1 PUSH1 0x40 MLOAD SWAP2 DUP3 PUSH1 0x0 DUP3 SLOAD SWAP3 PUSH2 0xD03 DUP5 PUSH2 0xC93 JUMP JUMPDEST SWAP1 DUP2 DUP5 MSTORE PUSH1 0x1 SWAP5 DUP6 DUP2 AND SWAP1 DUP2 PUSH1 0x0 EQ PUSH2 0xD72 JUMPI POP PUSH1 0x1 EQ PUSH2 0xD2F JUMPI JUMPDEST POP POP PUSH2 0xD2D SWAP3 POP SUB DUP4 PUSH2 0xCCD JUMP JUMPDEST JUMP JUMPDEST SWAP1 SWAP4 SWAP2 POP PUSH1 0x0 MSTORE PUSH1 0x20 SWAP1 DUP2 PUSH1 0x0 KECCAK256 SWAP4 PUSH1 0x0 SWAP2 JUMPDEST DUP2 DUP4 LT PUSH2 0xD5A JUMPI POP POP PUSH2 0xD2D SWAP4 POP DUP3 ADD ADD CODESIZE DUP1 PUSH2 0xD1F JUMP JUMPDEST DUP6 SLOAD DUP9 DUP5 ADD DUP6 ADD MSTORE SWAP5 DUP6 ADD SWAP5 DUP8 SWAP5 POP SWAP2 DUP4 ADD SWAP2 PUSH2 0xD42 JUMP JUMPDEST SWAP2 POP POP PUSH2 0xD2D SWAP5 POP PUSH1 0x20 SWAP3 POP PUSH1 0xFF NOT AND DUP3 DUP5 ADD MSTORE ISZERO ISZERO PUSH1 0x5 SHL DUP3 ADD ADD CODESIZE DUP1 PUSH2 0xD1F JUMP JUMPDEST SWAP2 SWAP1 DUP3 MLOAD SWAP3 DUP4 DUP3 MSTORE PUSH1 0x0 JUMPDEST DUP5 DUP2 LT PUSH2 0xDC1 JUMPI POP POP DUP3 PUSH1 0x0 PUSH1 0x20 DUP1 SWAP5 SWAP6 DUP5 ADD ADD MSTORE PUSH1 0x1F DUP1 NOT SWAP2 ADD AND ADD ADD SWAP1 JUMP JUMPDEST PUSH1 0x20 DUP2 DUP4 ADD DUP2 ADD MLOAD DUP5 DUP4 ADD DUP3 ADD MSTORE ADD PUSH2 0xDA0 JUMP JUMPDEST SWAP2 DUP2 PUSH1 0x1F DUP5 ADD SLT ISZERO PUSH2 0xB9 JUMPI DUP3 CALLDATALOAD SWAP2 PUSH8 0xFFFFFFFFFFFFFFFF DUP4 GT PUSH2 0xB9 JUMPI PUSH1 0x20 DUP4 DUP2 DUP7 ADD SWAP6 ADD ADD GT PUSH2 0xB9 JUMPI JUMP JUMPDEST SWAP3 SWAP2 SWAP3 PUSH8 0xFFFFFFFFFFFFFFFF DUP3 GT PUSH2 0x46B JUMPI PUSH1 0x40 MLOAD SWAP2 PUSH2 0xE2D PUSH1 0x1F DUP3 ADD PUSH1 0x1F NOT AND PUSH1 0x20 ADD DUP5 PUSH2 0xCCD JUMP JUMPDEST DUP3 SWAP5 DUP2 DUP5 MSTORE DUP2 DUP4 ADD GT PUSH2 0xB9 JUMPI DUP3 DUP2 PUSH1 0x20 SWAP4 DUP5 PUSH1 0x0 SWAP7 ADD CALLDATACOPY ADD ADD MSTORE JUMP JUMPDEST SWAP1 DUP2 PUSH1 0x20 SWAP2 SUB SLT PUSH2 0xB9 JUMPI MLOAD DUP1 ISZERO ISZERO DUP2 SUB PUSH2 0xB9 JUMPI SWAP1 JUMP JUMPDEST ISZERO PUSH2 0xE69 JUMPI JUMP JUMPDEST PUSH1 0x40 MLOAD PUSH3 0x461BCD PUSH1 0xE5 SHL DUP2 MSTORE PUSH1 0x20 PUSH1 0x4 DUP3 ADD MSTORE PUSH1 0xF PUSH1 0x24 DUP3 ADD MSTORE PUSH15 0x151C985B9CD9995C8819985A5B1959 PUSH1 0x8A SHL PUSH1 0x44 DUP3 ADD MSTORE PUSH1 0x64 SWAP1 REVERT JUMPDEST SWAP2 SWAP1 DUP3 ADD DUP1 SWAP3 GT PUSH2 0x538 JUMPI JUMP INVALID LOG2 PUSH5 0x6970667358 0x22 SLT KECCAK256 DIV 0xDE 0x2E 0x4A 0xEE GT DUP8 ORIGIN PC 0x4B 0xAF ORIGIN 0xF SWAP5 GAS DUP14 MULMOD SDIV 0xD3 0xEB SWAP13 DUP13 0xBF ADDMOD GASLIMIT DELEGATECALL PUSH1 0x91 PUSH8 0xCE9FC164736F6C63 NUMBER STOP ADDMOD EQ STOP CALLER "},"methodIdentifiers":{"campaignCount()":"7274e30d","campaigns(uint256)":"141961bc","createCampaign(string,string,uint256,uint256,uint256,address,address)":"54477ea6","donate(uint256,uint256)":"0cdd53f6","donations(uint256,address)":"ee1554a3","refund(uint256)":"278ecde1","withdrawFunds(uint256)":"155dd5ee"}}}}}