{"contracts/Fundraising.sol":{"Fundraising":{"abi":[{"inputs":[{"internalType":"address","name":"_usdcToken","type":"address"}],"stateMutability":"nonpayable","type":"constructor"},{"anonymous":false,"inputs":[{"indexed":true,"internalType":"uint256","name":"campaignId","type":"uint256"},{"indexed":true,"internalType":"address","name":"creator","type":"address"}],"name":"CampaignCreated","type":"event"},{"anonymous":false,"inputs":[{"indexed":true,"internalType":"uint256","name":"campaignId","type":"uint256"},{"indexed":true,"internalType":"address","name":"donor","type":"address"},{"indexed":false,"internalType":"uint256","name":"amount","type":"uint256"}],"name":"DonationReceived","type":"event"},{"anonymous":false,"inputs":[{"indexed":true,"internalType":"uint256","name":"campaignId","type":"uint256"},{"indexed":true,"internalType":"address","name":"beneficiary","type":"address"},{"indexed":false,"internalType":"uint256","name":"amount","type":"uint256"}],"name":"FundsWithdrawn","type":"event"},{"anonymous":false,"inputs":[{"indexed":true,"internalType":"uint256","name":"campaignId","type":"uint256"},{"indexed":true,"internalType":"address","name":"donor","type":"address"},{"indexed":false,"internalType":"uint256","name":"amount","type":"uint256"}],"name":"Refunded","type":"event"},{"inputs":[],"name":"campaignCount","outputs":[{"internalType":"uint256","name":"","type":"uint256"}],"stateMutability":"view","type":"function"},{"inputs":[{"internalType":"uint256","name":"","type":"uint256"}],"name":"campaigns","outputs":[{"internalType":"string","name":"name","type":"string"},{"internalType":"string","name":"description","type":"string"},{"internalType":"uint256","name":"goal","type":"uint256"},{"internalType":"uint256","name":"minDonation","type":"uint256"},{"internalType":"uint256","name":"deadline","type":"uint256"},{"internalType":"address","name":"beneficiary","type":"address"},{"internalType":"address","name":"creator","type":"address"},{"internalType":"address","name":"token","type":"address"},{"internalType":"string","name":"image","type":"string"},{"internalType":"uint256","name":"totalCollected","type":"uint256"},{"internalType":"bool","name":"withdrawn","type":"bool"}],"stateMutability":"view","type":"function"},{"inputs":[{"components":[{"internalType":"string","name":"name","type":"string"},{"internalType":"string","name":"description","type":"string"},{"internalType":"uint256","name":"goal","type":"uint256"},{"internalType":"uint256","name":"minDonation","type":"uint256"},{"internalType":"uint256","name":"duration","type":"uint256"},{"internalType":"address","name":"beneficiary","type":"address"},{"internalType":"string","name":"image","type":"string"}],"internalType":"struct Fundraising.CampaignRequest","name":"req","type":"tuple"}],"name":"createCampaign","outputs":[],"stateMutability":"nonpayable","type":"function"},{"inputs":[{"internalType":"uint256","name":"campaignId","type":"uint256"},{"internalType":"uint256","name":"amount","type":"uint256"}],"name":"donate","outputs":[],"stateMutability":"nonpayable","type":"function"},{"inputs":[{"internalType":"uint256","name":"","type":"uint256"},{"internalType":"address","name":"","type":"address"}],"name":"donations","outputs":[{"internalType":"uint256","name":"","type":"uint256"}],"stateMutability":"view","type":"function"},{"inputs":[{"internalType":"uint256","name":"id","type":"uint256"}],"name":"getCampaign","outputs":[{"components":[{"internalType":"string","name":"name","type":"string"},{"internalType":"string","name":"description","type":"string"},{"internalType":"uint256","name":"goal","type":"uint256"},{"internalType":"uint256","name":"minDonation","type":"uint256"},{"internalType":"uint256","name":"deadline","type":"uint256"},{"internalType":"address","name":"beneficiary","type":"address"},{"internalType":"address","name":"creator","type":"address"},{"internalType":"address","name":"token","type":"address"},{"internalType":"string","name":"image","type":"string"},{"internalType":"uint256","name":"totalCollected","type":"uint256"},{"internalType":"bool","name":"withdrawn","type":"bool"}],"internalType":"struct Fundraising.Campaign","name":"","type":"tuple"}],"stateMutability":"view","type":"function"},{"inputs":[{"internalType":"uint256","name":"campaignId","type":"uint256"}],"name":"refund","outputs":[],"stateMutability":"nonpayable","type":"function"},{"inputs":[],"name":"usdcToken","outputs":[{"internalType":"address","name":"","type":"address"}],"stateMutability":"view","type":"function"},{"inputs":[{"internalType":"uint256","name":"campaignId","type":"uint256"}],"name":"withdrawFunds","outputs":[],"stateMutability":"nonpayable","type":"function"}],"evm":{"bytecode":{"linkReferences":{},"object":"60803461007457601f61127638819003918201601f19168301916001600160401b038311848410176100795780849260209460405283398101031261007457516001600160a01b0381169081900361007457600280546001600160a01b0319169190911790556040516111e690816100908239f35b600080fd5b634e487b7160e01b600052604160045260246000fdfe6080604052600436101561001257600080fd5b60003560e01c80630cdd53f614610dac57806311eac85514610d83578063141961bc14610c92578063155dd5ee14610ace578063278ecde11461090c5780635598f8cc146107395780637274e30d1461071b57806392eb8a02146100d15763ee1554a31461007f57600080fd5b346100cc5760403660031901126100cc576024356001600160a01b038116908190036100cc5760043560005260016020526040600020906000526020526020604060002054604051908152f35b600080fd5b346100cc576003196020368201126100cc576004359067ffffffffffffffff82116100cc5760e09082360301126100cc576040519060e0820182811067ffffffffffffffff82111761054057604052806004013567ffffffffffffffff81116100cc5761014490600436918401016110be565b8252602481013567ffffffffffffffff81116100cc5761016a90600436918401016110be565b9160208101928352604081019160448101358352606082019060648101358252608083016084820135815260a48201359160018060a01b03831683036100cc5760a0850192835260c48101359067ffffffffffffffff82116100cc5760046101d592369201016110be565b9360c081019485528151156106e3576101f79051965195519351915142611115565b915160025494516040519790966001600160a01b039687169690921694919061021f89610f99565b8852602088015260408701526060860152608085015260a08401523360c084015260e083015261010082015260006101208201526000610140820152600054680100000000000000008110156105405780600161027f9201600055610f11565b9190916106cd57805191825167ffffffffffffffff8111610540576102a48254610f5f565b601f8111610689575b506020601f82116001146106215781929394600092610616575b50508160011b916000199060031b1c19161781555b602082015191825167ffffffffffffffff8111610540576103006001840154610f5f565b601f81116105cf575b506020601f82116001146105615781929394600092610556575b50508160011b916000199060031b1c19161760018301555b60408101516002830155606081015160038301556080810151600483015560a08101516005830180546001600160a01b039283166001600160a01b03199182161790915560c083015160068501805491841691831691909117905560e08301516007850180549190931691161790556101008101518051909290600882019067ffffffffffffffff8111610540576103d38254610f5f565b601f81116104f8575b506020601f8211600114610489579080600a949392610140969760009261047e575b50508160011b916000199060031b1c19161790555b610120840151600982015501910151151560ff8019835416911617905560005460001981019081116104685733907f633109eec20320eded000fc1e2634211aa7e92ba3f5b15faf6dcdafca05094e4600080a3005b634e487b7160e01b600052601160045260246000fd5b0151905087806103fe565b601f198216958360005260206000209660005b8181106104e05750966001928492600a979695610140999a106104c7575b505050811b019055610413565b015160001960f88460031b161c191690558780806104ba565b8383015189556001909801976020938401930161049c565b826000526020600020601f830160051c81019160208410610536575b601f0160051c01905b81811061052a57506103dc565b6000815560010161051d565b9091508190610514565b634e487b7160e01b600052604160045260246000fd5b015190508480610323565b6001840160005260206000209060005b601f19841681106105b75750600193949583601f1981161061059e575b505050811b01600183015561033b565b015160001960f88460031b161c1916905584808061058e565b9091602060018192858a015181550193019101610571565b600184016000526020600020601f830160051c81016020841061060f575b601f830160051c82018110610603575050610309565b600081556001016105ed565b50806105ed565b0151905084806102c7565b8260005260206000209060005b601f19841681106106715750600193949583601f19811610610658575b505050811b0181556102dc565b015160001960f88460031b161c1916905584808061064b565b9091602060018192858a01518155019301910161062e565b826000526020600020601f830160051c8101602084106106c6575b601f830160051c820181106106ba5750506102ad565b600081556001016106a4565b50806106a4565b634e487b7160e01b600052600060045260246000fd5b60405162461bcd60e51b815260206004820152601060248201526f24b73b30b634b210323ab930ba34b7b760811b6044820152606490fd5b346100cc5760003660031901126100cc576020600054604051908152f35b346100cc5760203660031901126100cc57600061014060405161075b81610f99565b60608152606060208201528260408201528260608201528260808201528260a08201528260c08201528260e082015260606101008201528261012082015201526107a6600435610f11565b5060ff600a604051926107b884610f99565b6107c181610fd8565b84526107cf60018201610fd8565b602085015260028101546040850152600381015460608501526004810154608085015260058101546001600160a01b0390811660a08601526006820154811660c086015260078201541660e085015261082a60088201610fd8565b610100850152600981015461012085015201541615156101408201526040518091602082526101406108f36108866108708451610160602088015261018087019061107e565b6020850151868203601f1901604088015261107e565b6040840151606086015260608401516080860152608084015160a086015260018060a01b0360a08501511660c086015260018060a01b0360c08501511660e086015260018060a01b0360e085015116610100860152610100840151601f198683030161012087015261107e565b9161012081015182850152015115156101608301520390f35b346100cc576020806003193601126100cc5760043561092a81610f11565b509161093c6004840154421015611178565b600983015460028401541115610a9f5781600052600181526040600020336000528152604060002054928315610a6c5760008381526001835260408082203380845290855281832083905560079390930154905163a9059cbb60e01b81526004810193909352602483018690528391839160449183916001600160a01b03165af1908115610a6057600091610a33575b50156109ff577f7ca5472b7ea78c2c0141c5a12ee6d170cf4ce8ed06be3d22c8252ddfc7a6a2c4906040519384523393a3005b6064906040519062461bcd60e51b82526004820152600d60248201526c1499599d5b990819985a5b1959609a1b6044820152fd5b610a539150823d8411610a59575b610a4b8183610fb6565b810190611122565b846109cc565b503d610a41565b6040513d6000823e3d90fd5b60405162461bcd60e51b815260048101839052600b60248201526a2737903237b730ba34b7b760a91b6044820152606490fd5b6064906040519062461bcd60e51b82526004820152600860248201526711dbd85b081b595d60c21b6044820152fd5b346100cc576020806003193601126100cc5760043590610aed82610f11565b50600681015490926001600160a01b0392909183163303610c6057600a84019283549460ff8616610c2757610b286004820154421015611178565b600981019485549660028301548810610bf35760ff1916600117905560078101546005909101805460405163a9059cbb60e01b81526001600160a01b039185169190911660048201526024810197909752949593949083908590604490829060009087165af1938415610a60577ff440aec6b52895984d061d622e6edeba6210f7c3e059be920663140c084560d794610bc991600091610bd6575b5061113a565b54169354604051908152a3005b610bed9150853d8711610a5957610a4b8183610fb6565b88610bc3565b60405162461bcd60e51b815260048101869052600c60248201526b11dbd85b081b9bdd081b595d60a21b6044820152606490fd5b60405162461bcd60e51b815260048101849052601160248201527020b63932b0b23c903bb4ba34323930bbb760791b6044820152606490fd5b6064906040519062461bcd60e51b82526004820152600b60248201526a2737ba1031b932b0ba37b960a91b6044820152fd5b346100cc5760203660031901126100cc576004356000548110156100cc57610cbc610d3591610f11565b50610cc681610fd8565b90610cd360018201610fd8565b610d7060028301546003840154600485015460018060a01b0380600588015416816006890154169160078901541692610d0e60088a01610fd8565b94610d4360ff600a60098d01549c015416996040519d8e9d8e61016090818152019061107e565b8d810360208f01529061107e565b9660408c015260608b015260808a015260a089015260c088015260e087015285820361010087015261107e565b9161012084015215156101408301520390f35b346100cc5760003660031901126100cc576002546040516001600160a01b039091168152602090f35b346100cc5760403660031901126100cc57602435600435610dcc81610f11565b5060048101544211610edb5760038101548310610e9d5760078101546040516323b872dd60e01b815233600482015230602482015260448101859052916020918290849060649082906000906001600160a01b03165af1908115610a6057610e5f6009927f0b5b4c52969ff7329ecf7ee536409fda87812b15a8622bc6e8cdeab3aee14a2695600091610bd6575061113a565b01610e6b858254611115565b9055826000526001815260406000203360005281526040600020610e90858254611115565b90556040519384523393a3005b60405162461bcd60e51b8152602060048201526016602482015275446f6e6174696f6e2062656c6f77206d696e696d756d60501b6044820152606490fd5b60405162461bcd60e51b815260206004820152600e60248201526d10d85b5c185a59db88195b99195960921b6044820152606490fd5b906000918254811015610f4b57600b90838052027f290decd9548b62a8d60345a988386fc84ba6bc95484008f6362f93160ef3e563019190565b634e487b7160e01b83526032600452602483fd5b90600182811c92168015610f8f575b6020831014610f7957565b634e487b7160e01b600052602260045260246000fd5b91607f1691610f6e565b610160810190811067ffffffffffffffff82111761054057604052565b90601f8019910116810190811067ffffffffffffffff82111761054057604052565b9060405191826000825492610fec84610f5f565b90818452600194858116908160001461105b5750600114611018575b505061101692500383610fb6565b565b9093915060005260209081600020936000915b81831061104357505061101693508201013880611008565b8554888401850152948501948794509183019161102b565b91505061101694506020925060ff191682840152151560051b8201013880611008565b919082519283825260005b8481106110aa575050826000602080949584010152601f8019910116010190565b602081830181015184830182015201611089565b81601f820112156100cc5780359067ffffffffffffffff821161054057604051926110f3601f8401601f191660200185610fb6565b828452602083830101116100cc57816000926020809301838601378301015290565b9190820180921161046857565b908160209103126100cc575180151581036100cc5790565b1561114157565b60405162461bcd60e51b815260206004820152600f60248201526e151c985b9cd9995c8819985a5b1959608a1b6044820152606490fd5b1561117f57565b60405162461bcd60e51b8152602060048201526009602482015268546f6f206561726c7960b81b6044820152606490fdfea26469706673582212200b38bdb0b71942a94d4335fefd9ed5fa29d0390bd64604bb99de39e015d32be664736f6c63430008140033","opcodes":"PUSH1 0x80 CALLVALUE PUSH2 0x74 JUMPI PUSH1 0x1F PUSH2 0x1276 CODESIZE DUP2 SWAP1 SUB SWAP2 DUP3 ADD PUSH1 0x1F NOT AND DUP4 ADD SWAP2 PUSH1 0x1 PUSH1 0x1 PUSH1 0x40 SHL SUB DUP4 GT DUP5 DUP5 LT OR PUSH2 0x79 JUMPI DUP1 DUP5 SWAP3 PUSH1 0x20 SWAP5 PUSH1 0x40 MSTORE DUP4 CODECOPY DUP2 ADD SUB SLT PUSH2 0x74 JUMPI MLOAD PUSH1 0x1 PUSH1 0x1 PUSH1 0xA0 SHL SUB DUP2 AND SWAP1 DUP2 SWAP1 SUB PUSH2 0x74 JUMPI PUSH1 0x2 DUP1 SLOAD PUSH1 0x1 PUSH1 0x1 PUSH1 0xA0 SHL SUB NOT AND SWAP2 SWAP1 SWAP2 OR SWAP1 SSTORE PUSH1 0x40 MLOAD PUSH2 0x11E6 SWAP1 DUP2 PUSH2 0x90 DUP3 CODECOPY RETURN JUMPDEST PUSH1 0x0 DUP1 REVERT JUMPDEST PUSH4 0x4E487B71 PUSH1 0xE0 SHL PUSH1 0x0 MSTORE PUSH1 0x41 PUSH1 0x4 MSTORE PUSH1 0x24 PUSH1 0x0 REVERT INVALID PUSH1 0x80 PUSH1 0x40 MSTORE PUSH1 0x4 CALLDATASIZE LT ISZERO PUSH2 0x12 JUMPI PUSH1 0x0 DUP1 REVERT JUMPDEST PUSH1 0x0 CALLDATALOAD PUSH1 0xE0 SHR DUP1 PUSH4 0xCDD53F6 EQ PUSH2 0xDAC JUMPI DUP1 PUSH4 0x11EAC855 EQ PUSH2 0xD83 JUMPI DUP1 PUSH4 0x141961BC EQ PUSH2 0xC92 JUMPI DUP1 PUSH4 0x155DD5EE EQ PUSH2 0xACE JUMPI DUP1 PUSH4 0x278ECDE1 EQ PUSH2 0x90C JUMPI DUP1 PUSH4 0x5598F8CC EQ PUSH2 0x739 JUMPI DUP1 PUSH4 0x7274E30D EQ PUSH2 0x71B JUMPI DUP1 PUSH4 0x92EB8A02 EQ PUSH2 0xD1 JUMPI PUSH4 0xEE1554A3 EQ PUSH2 0x7F JUMPI PUSH1 0x0 DUP1 REVERT JUMPDEST CALLVALUE PUSH2 0xCC JUMPI PUSH1 0x40 CALLDATASIZE PUSH1 0x3 NOT ADD SLT PUSH2 0xCC JUMPI PUSH1 0x24 CALLDATALOAD PUSH1 0x1 PUSH1 0x1 PUSH1 0xA0 SHL SUB DUP2 AND SWAP1 DUP2 SWAP1 SUB PUSH2 0xCC JUMPI PUSH1 0x4 CALLDATALOAD PUSH1 0x0 MSTORE PUSH1 0x1 PUSH1 0x20 MSTORE PUSH1 0x40 PUSH1 0x0 KECCAK256 SWAP1 PUSH1 0x0 MSTORE PUSH1 0x20 MSTORE PUSH1 0x20 PUSH1 0x40 PUSH1 0x0 KECCAK256 SLOAD PUSH1 0x40 MLOAD SWAP1 DUP2 MSTORE RETURN JUMPDEST PUSH1 0x0 DUP1 REVERT JUMPDEST CALLVALUE PUSH2 0xCC JUMPI PUSH1 0x3 NOT PUSH1 0x20 CALLDATASIZE DUP3 ADD SLT PUSH2 0xCC JUMPI PUSH1 0x4 CALLDATALOAD SWAP1 PUSH8 0xFFFFFFFFFFFFFFFF DUP3 GT PUSH2 0xCC JUMPI PUSH1 0xE0 SWAP1 DUP3 CALLDATASIZE SUB ADD SLT PUSH2 0xCC JUMPI PUSH1 0x40 MLOAD SWAP1 PUSH1 0xE0 DUP3 ADD DUP3 DUP2 LT PUSH8 0xFFFFFFFFFFFFFFFF DUP3 GT OR PUSH2 0x540 JUMPI PUSH1 0x40 MSTORE DUP1 PUSH1 0x4 ADD CALLDATALOAD PUSH8 0xFFFFFFFFFFFFFFFF DUP2 GT PUSH2 0xCC JUMPI PUSH2 0x144 SWAP1 PUSH1 0x4 CALLDATASIZE SWAP2 DUP5 ADD ADD PUSH2 0x10BE JUMP JUMPDEST DUP3 MSTORE PUSH1 0x24 DUP2 ADD CALLDATALOAD PUSH8 0xFFFFFFFFFFFFFFFF DUP2 GT PUSH2 0xCC JUMPI PUSH2 0x16A SWAP1 PUSH1 0x4 CALLDATASIZE SWAP2 DUP5 ADD ADD PUSH2 0x10BE JUMP JUMPDEST SWAP2 PUSH1 0x20 DUP2 ADD SWAP3 DUP4 MSTORE PUSH1 0x40 DUP2 ADD SWAP2 PUSH1 0x44 DUP2 ADD CALLDATALOAD DUP4 MSTORE PUSH1 0x60 DUP3 ADD SWAP1 PUSH1 0x64 DUP2 ADD CALLDATALOAD DUP3 MSTORE PUSH1 0x80 DUP4 ADD PUSH1 0x84 DUP3 ADD CALLDATALOAD DUP2 MSTORE PUSH1 0xA4 DUP3 ADD CALLDATALOAD SWAP2 PUSH1 0x1 DUP1 PUSH1 0xA0 SHL SUB DUP4 AND DUP4 SUB PUSH2 0xCC JUMPI PUSH1 0xA0 DUP6 ADD SWAP3 DUP4 MSTORE PUSH1 0xC4 DUP2 ADD CALLDATALOAD SWAP1 PUSH8 0xFFFFFFFFFFFFFFFF DUP3 GT PUSH2 0xCC JUMPI PUSH1 0x4 PUSH2 0x1D5 SWAP3 CALLDATASIZE SWAP3 ADD ADD PUSH2 0x10BE JUMP JUMPDEST SWAP4 PUSH1 0xC0 DUP2 ADD SWAP5 DUP6 MSTORE DUP2 MLOAD ISZERO PUSH2 0x6E3 JUMPI PUSH2 0x1F7 SWAP1 MLOAD SWAP7 MLOAD SWAP6 MLOAD SWAP4 MLOAD SWAP2 MLOAD TIMESTAMP PUSH2 0x1115 JUMP JUMPDEST SWAP2 MLOAD PUSH1 0x2 SLOAD SWAP5 MLOAD PUSH1 0x40 MLOAD SWAP8 SWAP1 SWAP7 PUSH1 0x1 PUSH1 0x1 PUSH1 0xA0 SHL SUB SWAP7 DUP8 AND SWAP7 SWAP1 SWAP3 AND SWAP5 SWAP2 SWAP1 PUSH2 0x21F DUP10 PUSH2 0xF99 JUMP JUMPDEST DUP9 MSTORE PUSH1 0x20 DUP9 ADD MSTORE PUSH1 0x40 DUP8 ADD MSTORE PUSH1 0x60 DUP7 ADD MSTORE PUSH1 0x80 DUP6 ADD MSTORE PUSH1 0xA0 DUP5 ADD MSTORE CALLER PUSH1 0xC0 DUP5 ADD MSTORE PUSH1 0xE0 DUP4 ADD MSTORE PUSH2 0x100 DUP3 ADD MSTORE PUSH1 0x0 PUSH2 0x120 DUP3 ADD MSTORE PUSH1 0x0 PUSH2 0x140 DUP3 ADD MSTORE PUSH1 0x0 SLOAD PUSH9 0x10000000000000000 DUP2 LT ISZERO PUSH2 0x540 JUMPI DUP1 PUSH1 0x1 PUSH2 0x27F SWAP3 ADD PUSH1 0x0 SSTORE PUSH2 0xF11 JUMP JUMPDEST SWAP2 SWAP1 SWAP2 PUSH2 0x6CD JUMPI DUP1 MLOAD SWAP2 DUP3 MLOAD PUSH8 0xFFFFFFFFFFFFFFFF DUP2 GT PUSH2 0x540 JUMPI PUSH2 0x2A4 DUP3 SLOAD PUSH2 0xF5F JUMP JUMPDEST PUSH1 0x1F DUP2 GT PUSH2 0x689 JUMPI JUMPDEST POP PUSH1 0x20 PUSH1 0x1F DUP3 GT PUSH1 0x1 EQ PUSH2 0x621 JUMPI DUP2 SWAP3 SWAP4 SWAP5 PUSH1 0x0 SWAP3 PUSH2 0x616 JUMPI JUMPDEST POP POP DUP2 PUSH1 0x1 SHL SWAP2 PUSH1 0x0 NOT SWAP1 PUSH1 0x3 SHL SHR NOT AND OR DUP2 SSTORE JUMPDEST PUSH1 0x20 DUP3 ADD MLOAD SWAP2 DUP3 MLOAD PUSH8 0xFFFFFFFFFFFFFFFF DUP2 GT PUSH2 0x540 JUMPI PUSH2 0x300 PUSH1 0x1 DUP5 ADD SLOAD PUSH2 0xF5F JUMP JUMPDEST PUSH1 0x1F DUP2 GT PUSH2 0x5CF JUMPI JUMPDEST POP PUSH1 0x20 PUSH1 0x1F DUP3 GT PUSH1 0x1 EQ PUSH2 0x561 JUMPI DUP2 SWAP3 SWAP4 SWAP5 PUSH1 0x0 SWAP3 PUSH2 0x556 JUMPI JUMPDEST POP POP DUP2 PUSH1 0x1 SHL SWAP2 PUSH1 0x0 NOT SWAP1 PUSH1 0x3 SHL SHR NOT AND OR PUSH1 0x1 DUP4 ADD SSTORE JUMPDEST PUSH1 0x40 DUP2 ADD MLOAD PUSH1 0x2 DUP4 ADD SSTORE PUSH1 0x60 DUP2 ADD MLOAD PUSH1 0x3 DUP4 ADD SSTORE PUSH1 0x80 DUP2 ADD MLOAD PUSH1 0x4 DUP4 ADD SSTORE PUSH1 0xA0 DUP2 ADD MLOAD PUSH1 0x5 DUP4 ADD DUP1 SLOAD PUSH1 0x1 PUSH1 0x1 PUSH1 0xA0 SHL SUB SWAP3 DUP4 AND PUSH1 0x1 PUSH1 0x1 PUSH1 0xA0 SHL SUB NOT SWAP2 DUP3 AND OR SWAP1 SWAP2 SSTORE PUSH1 0xC0 DUP4 ADD MLOAD PUSH1 0x6 DUP6 ADD DUP1 SLOAD SWAP2 DUP5 AND SWAP2 DUP4 AND SWAP2 SWAP1 SWAP2 OR SWAP1 SSTORE PUSH1 0xE0 DUP4 ADD MLOAD PUSH1 0x7 DUP6 ADD DUP1 SLOAD SWAP2 SWAP1 SWAP4 AND SWAP2 AND OR SWAP1 SSTORE PUSH2 0x100 DUP2 ADD MLOAD DUP1 MLOAD SWAP1 SWAP3 SWAP1 PUSH1 0x8 DUP3 ADD SWAP1 PUSH8 0xFFFFFFFFFFFFFFFF DUP2 GT PUSH2 0x540 JUMPI PUSH2 0x3D3 DUP3 SLOAD PUSH2 0xF5F JUMP JUMPDEST PUSH1 0x1F DUP2 GT PUSH2 0x4F8 JUMPI JUMPDEST POP PUSH1 0x20 PUSH1 0x1F DUP3 GT PUSH1 0x1 EQ PUSH2 0x489 JUMPI SWAP1 DUP1 PUSH1 0xA SWAP5 SWAP4 SWAP3 PUSH2 0x140 SWAP7 SWAP8 PUSH1 0x0 SWAP3 PUSH2 0x47E JUMPI JUMPDEST POP POP DUP2 PUSH1 0x1 SHL SWAP2 PUSH1 0x0 NOT SWAP1 PUSH1 0x3 SHL SHR NOT AND OR SWAP1 SSTORE JUMPDEST PUSH2 0x120 DUP5 ADD MLOAD PUSH1 0x9 DUP3 ADD SSTORE ADD SWAP2 ADD MLOAD ISZERO ISZERO PUSH1 0xFF DUP1 NOT DUP4 SLOAD AND SWAP2 AND OR SWAP1 SSTORE PUSH1 0x0 SLOAD PUSH1 0x0 NOT DUP2 ADD SWAP1 DUP2 GT PUSH2 0x468 JUMPI CALLER SWAP1 PUSH32 0x633109EEC20320EDED000FC1E2634211AA7E92BA3F5B15FAF6DCDAFCA05094E4 PUSH1 0x0 DUP1 LOG3 STOP JUMPDEST PUSH4 0x4E487B71 PUSH1 0xE0 SHL PUSH1 0x0 MSTORE PUSH1 0x11 PUSH1 0x4 MSTORE PUSH1 0x24 PUSH1 0x0 REVERT JUMPDEST ADD MLOAD SWAP1 POP DUP8 DUP1 PUSH2 0x3FE JUMP JUMPDEST PUSH1 0x1F NOT DUP3 AND SWAP6 DUP4 PUSH1 0x0 MSTORE PUSH1 0x20 PUSH1 0x0 KECCAK256 SWAP7 PUSH1 0x0 JUMPDEST DUP2 DUP2 LT PUSH2 0x4E0 JUMPI POP SWAP7 PUSH1 0x1 SWAP3 DUP5 SWAP3 PUSH1 0xA SWAP8 SWAP7 SWAP6 PUSH2 0x140 SWAP10 SWAP11 LT PUSH2 0x4C7 JUMPI JUMPDEST POP POP POP DUP2 SHL ADD SWAP1 SSTORE PUSH2 0x413 JUMP JUMPDEST ADD MLOAD PUSH1 0x0 NOT PUSH1 0xF8 DUP5 PUSH1 0x3 SHL AND SHR NOT AND SWAP1 SSTORE DUP8 DUP1 DUP1 PUSH2 0x4BA JUMP JUMPDEST DUP4 DUP4 ADD MLOAD DUP10 SSTORE PUSH1 0x1 SWAP1 SWAP9 ADD SWAP8 PUSH1 0x20 SWAP4 DUP5 ADD SWAP4 ADD PUSH2 0x49C JUMP JUMPDEST DUP3 PUSH1 0x0 MSTORE PUSH1 0x20 PUSH1 0x0 KECCAK256 PUSH1 0x1F DUP4 ADD PUSH1 0x5 SHR DUP2 ADD SWAP2 PUSH1 0x20 DUP5 LT PUSH2 0x536 JUMPI JUMPDEST PUSH1 0x1F ADD PUSH1 0x5 SHR ADD SWAP1 JUMPDEST DUP2 DUP2 LT PUSH2 0x52A JUMPI POP PUSH2 0x3DC JUMP JUMPDEST PUSH1 0x0 DUP2 SSTORE PUSH1 0x1 ADD PUSH2 0x51D JUMP JUMPDEST SWAP1 SWAP2 POP DUP2 SWAP1 PUSH2 0x514 JUMP JUMPDEST PUSH4 0x4E487B71 PUSH1 0xE0 SHL PUSH1 0x0 MSTORE PUSH1 0x41 PUSH1 0x4 MSTORE PUSH1 0x24 PUSH1 0x0 REVERT JUMPDEST ADD MLOAD SWAP1 POP DUP5 DUP1 PUSH2 0x323 JUMP JUMPDEST PUSH1 0x1 DUP5 ADD PUSH1 0x0 MSTORE PUSH1 0x20 PUSH1 0x0 KECCAK256 SWAP1 PUSH1 0x0 JUMPDEST PUSH1 0x1F NOT DUP5 AND DUP2 LT PUSH2 0x5B7 JUMPI POP PUSH1 0x1 SWAP4 SWAP5 SWAP6 DUP4 PUSH1 0x1F NOT DUP2 AND LT PUSH2 0x59E JUMPI JUMPDEST POP POP POP DUP2 SHL ADD PUSH1 0x1 DUP4 ADD SSTORE PUSH2 0x33B JUMP JUMPDEST ADD MLOAD PUSH1 0x0 NOT PUSH1 0xF8 DUP5 PUSH1 0x3 SHL AND SHR NOT AND SWAP1 SSTORE DUP5 DUP1 DUP1 PUSH2 0x58E JUMP JUMPDEST SWAP1 SWAP2 PUSH1 0x20 PUSH1 0x1 DUP2 SWAP3 DUP6 DUP11 ADD MLOAD DUP2 SSTORE ADD SWAP4 ADD SWAP2 ADD PUSH2 0x571 JUMP JUMPDEST PUSH1 0x1 DUP5 ADD PUSH1 0x0 MSTORE PUSH1 0x20 PUSH1 0x0 KECCAK256 PUSH1 0x1F DUP4 ADD PUSH1 0x5 SHR DUP2 ADD PUSH1 0x20 DUP5 LT PUSH2 0x60F JUMPI JUMPDEST PUSH1 0x1F DUP4 ADD PUSH1 0x5 SHR DUP3 ADD DUP2 LT PUSH2 0x603 JUMPI POP POP PUSH2 0x309 JUMP JUMPDEST PUSH1 0x0 DUP2 SSTORE PUSH1 0x1 ADD PUSH2 0x5ED JUMP JUMPDEST POP DUP1 PUSH2 0x5ED JUMP JUMPDEST ADD MLOAD SWAP1 POP DUP5 DUP1 PUSH2 0x2C7 JUMP JUMPDEST DUP3 PUSH1 0x0 MSTORE PUSH1 0x20 PUSH1 0x0 KECCAK256 SWAP1 PUSH1 0x0 JUMPDEST PUSH1 0x1F NOT DUP5 AND DUP2 LT PUSH2 0x671 JUMPI POP PUSH1 0x1 SWAP4 SWAP5 SWAP6 DUP4 PUSH1 0x1F NOT DUP2 AND LT PUSH2 0x658 JUMPI JUMPDEST POP POP POP DUP2 SHL ADD DUP2 SSTORE PUSH2 0x2DC JUMP JUMPDEST ADD MLOAD PUSH1 0x0 NOT PUSH1 0xF8 DUP5 PUSH1 0x3 SHL AND SHR NOT AND SWAP1 SSTORE DUP5 DUP1 DUP1 PUSH2 0x64B JUMP JUMPDEST SWAP1 SWAP2 PUSH1 0x20 PUSH1 0x1 DUP2 SWAP3 DUP6 DUP11 ADD MLOAD DUP2 SSTORE ADD SWAP4 ADD SWAP2 ADD PUSH2 0x62E JUMP JUMPDEST DUP3 PUSH1 0x0 MSTORE PUSH1 0x20 PUSH1 0x0 KECCAK256 PUSH1 0x1F DUP4 ADD PUSH1 0x5 SHR DUP2 ADD PUSH1 0x20 DUP5 LT PUSH2 0x6C6 JUMPI JUMPDEST PUSH1 0x1F DUP4 ADD PUSH1 0x5 SHR DUP3 ADD DUP2 LT PUSH2 0x6BA JUMPI POP POP PUSH2 0x2AD JUMP JUMPDEST PUSH1 0x0 DUP2 SSTORE PUSH1 0x1 ADD PUSH2 0x6A4 JUMP JUMPDEST POP DUP1 PUSH2 0x6A4 JUMP JUMPDEST PUSH4 0x4E487B71 PUSH1 0xE0 SHL PUSH1 0x0 MSTORE PUSH1 0x0 PUSH1 0x4 MSTORE PUSH1 0x24 PUSH1 0x0 REVERT JUMPDEST PUSH1 0x40 MLOAD PUSH3 0x461BCD PUSH1 0xE5 SHL DUP2 MSTORE PUSH1 0x20 PUSH1 0x4 DUP3 ADD MSTORE PUSH1 0x10 PUSH1 0x24 DUP3 ADD MSTORE PUSH16 0x24B73B30B634B210323AB930BA34B7B7 PUSH1 0x81 SHL PUSH1 0x44 DUP3 ADD MSTORE PUSH1 0x64 SWAP1 REVERT JUMPDEST CALLVALUE PUSH2 0xCC JUMPI PUSH1 0x0 CALLDATASIZE PUSH1 0x3 NOT ADD SLT PUSH2 0xCC JUMPI PUSH1 0x20 PUSH1 0x0 SLOAD PUSH1 0x40 MLOAD SWAP1 DUP2 MSTORE RETURN JUMPDEST CALLVALUE PUSH2 0xCC JUMPI PUSH1 0x20 CALLDATASIZE PUSH1 0x3 NOT ADD SLT PUSH2 0xCC JUMPI PUSH1 0x0 PUSH2 0x140 PUSH1 0x40 MLOAD PUSH2 0x75B DUP2 PUSH2 0xF99 JUMP JUMPDEST PUSH1 0x60 DUP2 MSTORE PUSH1 0x60 PUSH1 0x20 DUP3 ADD MSTORE DUP3 PUSH1 0x40 DUP3 ADD MSTORE DUP3 PUSH1 0x60 DUP3 ADD MSTORE DUP3 PUSH1 0x80 DUP3 ADD MSTORE DUP3 PUSH1 0xA0 DUP3 ADD MSTORE DUP3 PUSH1 0xC0 DUP3 ADD MSTORE DUP3 PUSH1 0xE0 DUP3 ADD MSTORE PUSH1 0x60 PUSH2 0x100 DUP3 ADD MSTORE DUP3 PUSH2 0x120 DUP3 ADD MSTORE ADD MSTORE PUSH2 0x7A6 PUSH1 0x4 CALLDATALOAD PUSH2 0xF11 JUMP JUMPDEST POP PUSH1 0xFF PUSH1 0xA PUSH1 0x40 MLOAD SWAP3 PUSH2 0x7B8 DUP5 PUSH2 0xF99 JUMP JUMPDEST PUSH2 0x7C1 DUP2 PUSH2 0xFD8 JUMP JUMPDEST DUP5 MSTORE PUSH2 0x7CF PUSH1 0x1 DUP3 ADD PUSH2 0xFD8 JUMP JUMPDEST PUSH1 0x20 DUP6 ADD MSTORE PUSH1 0x2 DUP2 ADD SLOAD PUSH1 0x40 DUP6 ADD MSTORE PUSH1 0x3 DUP2 ADD SLOAD PUSH1 0x60 DUP6 ADD MSTORE PUSH1 0x4 DUP2 ADD SLOAD PUSH1 0x80 DUP6 ADD MSTORE PUSH1 0x5 DUP2 ADD SLOAD PUSH1 0x1 PUSH1 0x1 PUSH1 0xA0 SHL SUB SWAP1 DUP2 AND PUSH1 0xA0 DUP7 ADD MSTORE PUSH1 0x6 DUP3 ADD SLOAD DUP2 AND PUSH1 0xC0 DUP7 ADD MSTORE PUSH1 0x7 DUP3 ADD SLOAD AND PUSH1 0xE0 DUP6 ADD MSTORE PUSH2 0x82A PUSH1 0x8 DUP3 ADD PUSH2 0xFD8 JUMP JUMPDEST PUSH2 0x100 DUP6 ADD MSTORE PUSH1 0x9 DUP2 ADD SLOAD PUSH2 0x120 DUP6 ADD MSTORE ADD SLOAD AND ISZERO ISZERO PUSH2 0x140 DUP3 ADD MSTORE PUSH1 0x40 MLOAD DUP1 SWAP2 PUSH1 0x20 DUP3 MSTORE PUSH2 0x140 PUSH2 0x8F3 PUSH2 0x886 PUSH2 0x870 DUP5 MLOAD PUSH2 0x160 PUSH1 0x20 DUP9 ADD MSTORE PUSH2 0x180 DUP8 ADD SWAP1 PUSH2 0x107E JUMP JUMPDEST PUSH1 0x20 DUP6 ADD MLOAD DUP7 DUP3 SUB PUSH1 0x1F NOT ADD PUSH1 0x40 DUP9 ADD MSTORE PUSH2 0x107E JUMP JUMPDEST PUSH1 0x40 DUP5 ADD MLOAD PUSH1 0x60 DUP7 ADD MSTORE PUSH1 0x60 DUP5 ADD MLOAD PUSH1 0x80 DUP7 ADD MSTORE PUSH1 0x80 DUP5 ADD MLOAD PUSH1 0xA0 DUP7 ADD MSTORE PUSH1 0x1 DUP1 PUSH1 0xA0 SHL SUB PUSH1 0xA0 DUP6 ADD MLOAD AND PUSH1 0xC0 DUP7 ADD MSTORE PUSH1 0x1 DUP1 PUSH1 0xA0 SHL SUB PUSH1 0xC0 DUP6 ADD MLOAD AND PUSH1 0xE0 DUP7 ADD MSTORE PUSH1 0x1 DUP1 PUSH1 0xA0 SHL SUB PUSH1 0xE0 DUP6 ADD MLOAD AND PUSH2 0x100 DUP7 ADD MSTORE PUSH2 0x100 DUP5 ADD MLOAD PUSH1 0x1F NOT DUP7 DUP4 SUB ADD PUSH2 0x120 DUP8 ADD MSTORE PUSH2 0x107E JUMP JUMPDEST SWAP2 PUSH2 0x120 DUP2 ADD MLOAD DUP3 DUP6 ADD MSTORE ADD MLOAD ISZERO ISZERO PUSH2 0x160 DUP4 ADD MSTORE SUB SWAP1 RETURN JUMPDEST CALLVALUE PUSH2 0xCC JUMPI PUSH1 0x20 DUP1 PUSH1 0x3 NOT CALLDATASIZE ADD SLT PUSH2 0xCC JUMPI PUSH1 0x4 CALLDATALOAD PUSH2 0x92A DUP2 PUSH2 0xF11 JUMP JUMPDEST POP SWAP2 PUSH2 0x93C PUSH1 0x4 DUP5 ADD SLOAD TIMESTAMP LT ISZERO PUSH2 0x1178 JUMP JUMPDEST PUSH1 0x9 DUP4 ADD SLOAD PUSH1 0x2 DUP5 ADD SLOAD GT ISZERO PUSH2 0xA9F JUMPI DUP2 PUSH1 0x0 MSTORE PUSH1 0x1 DUP2 MSTORE PUSH1 0x40 PUSH1 0x0 KECCAK256 CALLER PUSH1 0x0 MSTORE DUP2 MSTORE PUSH1 0x40 PUSH1 0x0 KECCAK256 SLOAD SWAP3 DUP4 ISZERO PUSH2 0xA6C JUMPI PUSH1 0x0 DUP4 DUP2 MSTORE PUSH1 0x1 DUP4 MSTORE PUSH1 0x40 DUP1 DUP3 KECCAK256 CALLER DUP1 DUP5 MSTORE SWAP1 DUP6 MSTORE DUP2 DUP4 KECCAK256 DUP4 SWAP1 SSTORE PUSH1 0x7 SWAP4 SWAP1 SWAP4 ADD SLOAD SWAP1 MLOAD PUSH4 0xA9059CBB PUSH1 0xE0 SHL DUP2 MSTORE PUSH1 0x4 DUP2 ADD SWAP4 SWAP1 SWAP4 MSTORE PUSH1 0x24 DUP4 ADD DUP7 SWAP1 MSTORE DUP4 SWAP2 DUP4 SWAP2 PUSH1 0x44 SWAP2 DUP4 SWAP2 PUSH1 0x1 PUSH1 0x1 PUSH1 0xA0 SHL SUB AND GAS CALL SWAP1 DUP2 ISZERO PUSH2 0xA60 JUMPI PUSH1 0x0 SWAP2 PUSH2 0xA33 JUMPI JUMPDEST POP ISZERO PUSH2 0x9FF JUMPI PUSH32 0x7CA5472B7EA78C2C0141C5A12EE6D170CF4CE8ED06BE3D22C8252DDFC7A6A2C4 SWAP1 PUSH1 0x40 MLOAD SWAP4 DUP5 MSTORE CALLER SWAP4 LOG3 STOP JUMPDEST PUSH1 0x64 SWAP1 PUSH1 0x40 MLOAD SWAP1 PUSH3 0x461BCD PUSH1 0xE5 SHL DUP3 MSTORE PUSH1 0x4 DUP3 ADD MSTORE PUSH1 0xD PUSH1 0x24 DUP3 ADD MSTORE PUSH13 0x1499599D5B990819985A5B1959 PUSH1 0x9A SHL PUSH1 0x44 DUP3 ADD MSTORE REVERT JUMPDEST PUSH2 0xA53 SWAP2 POP DUP3 RETURNDATASIZE DUP5 GT PUSH2 0xA59 JUMPI JUMPDEST PUSH2 0xA4B DUP2 DUP4 PUSH2 0xFB6 JUMP JUMPDEST DUP2 ADD SWAP1 PUSH2 0x1122 JUMP JUMPDEST DUP5 PUSH2 0x9CC JUMP JUMPDEST POP RETURNDATASIZE PUSH2 0xA41 JUMP JUMPDEST PUSH1 0x40 MLOAD RETURNDATASIZE PUSH1 0x0 DUP3 RETURNDATACOPY RETURNDATASIZE SWAP1 REVERT JUMPDEST PUSH1 0x40 MLOAD PUSH3 0x461BCD PUSH1 0xE5 SHL DUP2 MSTORE PUSH1 0x4 DUP2 ADD DUP4 SWAP1 MSTORE PUSH1 0xB PUSH1 0x24 DUP3 ADD MSTORE PUSH11 0x2737903237B730BA34B7B7 PUSH1 0xA9 SHL PUSH1 0x44 DUP3 ADD MSTORE PUSH1 0x64 SWAP1 REVERT JUMPDEST PUSH1 0x64 SWAP1 PUSH1 0x40 MLOAD SWAP1 PUSH3 0x461BCD PUSH1 0xE5 SHL DUP3 MSTORE PUSH1 0x4 DUP3 ADD MSTORE PUSH1 0x8 PUSH1 0x24 DUP3 ADD MSTORE PUSH8 0x11DBD85B081B595D PUSH1 0xC2 SHL PUSH1 0x44 DUP3 ADD MSTORE REVERT JUMPDEST CALLVALUE PUSH2 0xCC JUMPI PUSH1 0x20 DUP1 PUSH1 0x3 NOT CALLDATASIZE ADD SLT PUSH2 0xCC JUMPI PUSH1 0x4 CALLDATALOAD SWAP1 PUSH2 0xAED DUP3 PUSH2 0xF11 JUMP JUMPDEST POP PUSH1 0x6 DUP2 ADD SLOAD SWAP1 SWAP3 PUSH1 0x1 PUSH1 0x1 PUSH1 0xA0 SHL SUB SWAP3 SWAP1 SWAP2 DUP4 AND CALLER SUB PUSH2 0xC60 JUMPI PUSH1 0xA DUP5 ADD SWAP3 DUP4 SLOAD SWAP5 PUSH1 0xFF DUP7 AND PUSH2 0xC27 JUMPI PUSH2 0xB28 PUSH1 0x4 DUP3 ADD SLOAD TIMESTAMP LT ISZERO PUSH2 0x1178 JUMP JUMPDEST PUSH1 0x9 DUP2 ADD SWAP5 DUP6 SLOAD SWAP7 PUSH1 0x2 DUP4 ADD SLOAD DUP9 LT PUSH2 0xBF3 JUMPI PUSH1 0xFF NOT AND PUSH1 0x1 OR SWAP1 SSTORE PUSH1 0x7 DUP2 ADD SLOAD PUSH1 0x5 SWAP1 SWAP2 ADD DUP1 SLOAD PUSH1 0x40 MLOAD PUSH4 0xA9059CBB PUSH1 0xE0 SHL DUP2 MSTORE PUSH1 0x1 PUSH1 0x1 PUSH1 0xA0 SHL SUB SWAP2 DUP6 AND SWAP2 SWAP1 SWAP2 AND PUSH1 0x4 DUP3 ADD MSTORE PUSH1 0x24 DUP2 ADD SWAP8 SWAP1 SWAP8 MSTORE SWAP5 SWAP6 SWAP4 SWAP5 SWAP1 DUP4 SWAP1 DUP6 SWAP1 PUSH1 0x44 SWAP1 DUP3 SWAP1 PUSH1 0x0 SWAP1 DUP8 AND GAS CALL SWAP4 DUP5 ISZERO PUSH2 0xA60 JUMPI PUSH32 0xF440AEC6B52895984D061D622E6EDEBA6210F7C3E059BE920663140C084560D7 SWAP5 PUSH2 0xBC9 SWAP2 PUSH1 0x0 SWAP2 PUSH2 0xBD6 JUMPI JUMPDEST POP PUSH2 0x113A JUMP JUMPDEST SLOAD AND SWAP4 SLOAD PUSH1 0x40 MLOAD SWAP1 DUP2 MSTORE LOG3 STOP JUMPDEST PUSH2 0xBED SWAP2 POP DUP6 RETURNDATASIZE DUP8 GT PUSH2 0xA59 JUMPI PUSH2 0xA4B DUP2 DUP4 PUSH2 0xFB6 JUMP JUMPDEST DUP9 PUSH2 0xBC3 JUMP JUMPDEST PUSH1 0x40 MLOAD PUSH3 0x461BCD PUSH1 0xE5 SHL DUP2 MSTORE PUSH1 0x4 DUP2 ADD DUP7 SWAP1 MSTORE PUSH1 0xC PUSH1 0x24 DUP3 ADD MSTORE PUSH12 0x11DBD85B081B9BDD081B595D PUSH1 0xA2 SHL PUSH1 0x44 DUP3 ADD MSTORE PUSH1 0x64 SWAP1 REVERT JUMPDEST PUSH1 0x40 MLOAD PUSH3 0x461BCD PUSH1 0xE5 SHL DUP2 MSTORE PUSH1 0x4 DUP2 ADD DUP5 SWAP1 MSTORE PUSH1 0x11 PUSH1 0x24 DUP3 ADD MSTORE PUSH17 0x20B63932B0B23C903BB4BA34323930BBB7 PUSH1 0x79 SHL PUSH1 0x44 DUP3 ADD MSTORE PUSH1 0x64 SWAP1 REVERT JUMPDEST PUSH1 0x64 SWAP1 PUSH1 0x40 MLOAD SWAP1 PUSH3 0x461BCD PUSH1 0xE5 SHL DUP3 MSTORE PUSH1 0x4 DUP3 ADD MSTORE PUSH1 0xB PUSH1 0x24 DUP3 ADD MSTORE PUSH11 0x2737BA1031B932B0BA37B9 PUSH1 0xA9 SHL PUSH1 0x44 DUP3 ADD MSTORE REVERT JUMPDEST CALLVALUE PUSH2 0xCC JUMPI PUSH1 0x20 CALLDATASIZE PUSH1 0x3 NOT ADD SLT PUSH2 0xCC JUMPI PUSH1 0x4 CALLDATALOAD PUSH1 0x0 SLOAD DUP2 LT ISZERO PUSH2 0xCC JUMPI PUSH2 0xCBC PUSH2 0xD35 SWAP2 PUSH2 0xF11 JUMP JUMPDEST POP PUSH2 0xCC6 DUP2 PUSH2 0xFD8 JUMP JUMPDEST SWAP1 PUSH2 0xCD3 PUSH1 0x1 DUP3 ADD PUSH2 0xFD8 JUMP JUMPDEST PUSH2 0xD70 PUSH1 0x2 DUP4 ADD SLOAD PUSH1 0x3 DUP5 ADD SLOAD PUSH1 0x4 DUP6 ADD SLOAD PUSH1 0x1 DUP1 PUSH1 0xA0 SHL SUB DUP1 PUSH1 0x5 DUP9 ADD SLOAD AND DUP2 PUSH1 0x6 DUP10 ADD SLOAD AND SWAP2 PUSH1 0x7 DUP10 ADD SLOAD AND SWAP3 PUSH2 0xD0E PUSH1 0x8 DUP11 ADD PUSH2 0xFD8 JUMP JUMPDEST SWAP5 PUSH2 0xD43 PUSH1 0xFF PUSH1 0xA PUSH1 0x9 DUP14 ADD SLOAD SWAP13 ADD SLOAD AND SWAP10 PUSH1 0x40 MLOAD SWAP14 DUP15 SWAP14 DUP15 PUSH2 0x160 SWAP1 DUP2 DUP2 MSTORE ADD SWAP1 PUSH2 0x107E JUMP JUMPDEST DUP14 DUP2 SUB PUSH1 0x20 DUP16 ADD MSTORE SWAP1 PUSH2 0x107E JUMP JUMPDEST SWAP7 PUSH1 0x40 DUP13 ADD MSTORE PUSH1 0x60 DUP12 ADD MSTORE PUSH1 0x80 DUP11 ADD MSTORE PUSH1 0xA0 DUP10 ADD MSTORE PUSH1 0xC0 DUP9 ADD MSTORE PUSH1 0xE0 DUP8 ADD MSTORE DUP6 DUP3 SUB PUSH2 0x100 DUP8 ADD MSTORE PUSH2 0x107E JUMP JUMPDEST SWAP2 PUSH2 0x120 DUP5 ADD MSTORE ISZERO ISZERO PUSH2 0x140 DUP4 ADD MSTORE SUB SWAP1 RETURN JUMPDEST CALLVALUE PUSH2 0xCC JUMPI PUSH1 0x0 CALLDATASIZE PUSH1 0x3 NOT ADD SLT PUSH2 0xCC JUMPI PUSH1 0x2 SLOAD PUSH1 0x40 MLOAD PUSH1 0x1 PUSH1 0x1 PUSH1 0xA0 SHL SUB SWAP1 SWAP2 AND DUP2 MSTORE PUSH1 0x20 SWAP1 RETURN JUMPDEST CALLVALUE PUSH2 0xCC JUMPI PUSH1 0x40 CALLDATASIZE PUSH1 0x3 NOT ADD SLT PUSH2 0xCC JUMPI PUSH1 0x24 CALLDATALOAD PUSH1 0x4 CALLDATALOAD PUSH2 0xDCC DUP2 PUSH2 0xF11 JUMP JUMPDEST POP PUSH1 0x4 DUP2 ADD SLOAD TIMESTAMP GT PUSH2 0xEDB JUMPI PUSH1 0x3 DUP2 ADD SLOAD DUP4 LT PUSH2 0xE9D JUMPI PUSH1 0x7 DUP2 ADD SLOAD PUSH1 0x40 MLOAD PUSH4 0x23B872DD PUSH1 0xE0 SHL DUP2 MSTORE CALLER PUSH1 0x4 DUP3 ADD MSTORE ADDRESS PUSH1 0x24 DUP3 ADD MSTORE PUSH1 0x44 DUP2 ADD DUP6 SWAP1 MSTORE SWAP2 PUSH1 0x20 SWAP2 DUP3 SWAP1 DUP5 SWAP1 PUSH1 0x64 SWAP1 DUP3 SWAP1 PUSH1 0x0 SWAP1 PUSH1 0x1 PUSH1 0x1 PUSH1 0xA0 SHL SUB AND GAS CALL SWAP1 DUP2 ISZERO PUSH2 0xA60 JUMPI PUSH2 0xE5F PUSH1 0x9 SWAP3 PUSH32 0xB5B4C52969FF7329ECF7EE536409FDA87812B15A8622BC6E8CDEAB3AEE14A26 SWAP6 PUSH1 0x0 SWAP2 PUSH2 0xBD6 JUMPI POP PUSH2 0x113A JUMP JUMPDEST ADD PUSH2 0xE6B DUP6 DUP3 SLOAD PUSH2 0x1115 JUMP JUMPDEST SWAP1 SSTORE DUP3 PUSH1 0x0 MSTORE PUSH1 0x1 DUP2 MSTORE PUSH1 0x40 PUSH1 0x0 KECCAK256 CALLER PUSH1 0x0 MSTORE DUP2 MSTORE PUSH1 0x40 PUSH1 0x0 KECCAK256 PUSH2 0xE90 DUP6 DUP3 SLOAD PUSH2 0x1115 JUMP JUMPDEST SWAP1 SSTORE PUSH1 0x40 MLOAD SWAP4 DUP5 MSTORE CALLER SWAP4 LOG3 STOP JUMPDEST PUSH1 0x40 MLOAD PUSH3 0x461BCD PUSH1 0xE5 SHL DUP2 MSTORE PUSH1 0x20 PUSH1 0x4 DUP3 ADD MSTORE PUSH1 0x16 PUSH1 0x24 DUP3 ADD MSTORE PUSH22 0x446F6E6174696F6E2062656C6F77206D696E696D756D PUSH1 0x50 SHL PUSH1 0x44 DUP3 ADD MSTORE PUSH1 0x64 SWAP1 REVERT JUMPDEST PUSH1 0x40 MLOAD PUSH3 0x461BCD PUSH1 0xE5 SHL DUP2 MSTORE PUSH1 0x20 PUSH1 0x4 DUP3 ADD MSTORE PUSH1 0xE PUSH1 0x24 DUP3 ADD MSTORE PUSH14 0x10D85B5C185A59DB88195B991959 PUSH1 0x92 SHL PUSH1 0x44 DUP3 ADD MSTORE PUSH1 0x64 SWAP1 REVERT JUMPDEST SWAP1 PUSH1 0x0 SWAP2 DUP3 SLOAD DUP2 LT ISZERO PUSH2 0xF4B JUMPI PUSH1 0xB SWAP1 DUP4 DUP1 MSTORE MUL PUSH32 0x290DECD9548B62A8D60345A988386FC84BA6BC95484008F6362F93160EF3E563 ADD SWAP2 SWAP1 JUMP JUMPDEST PUSH4 0x4E487B71 PUSH1 0xE0 SHL DUP4 MSTORE PUSH1 0x32 PUSH1 0x4 MSTORE PUSH1 0x24 DUP4 REVERT JUMPDEST SWAP1 PUSH1 0x1 DUP3 DUP2 SHR SWAP3 AND DUP1 ISZERO PUSH2 0xF8F JUMPI JUMPDEST PUSH1 0x20 DUP4 LT EQ PUSH2 0xF79 JUMPI JUMP JUMPDEST PUSH4 0x4E487B71 PUSH1 0xE0 SHL PUSH1 0x0 MSTORE PUSH1 0x22 PUSH1 0x4 MSTORE PUSH1 0x24 PUSH1 0x0 REVERT JUMPDEST SWAP2 PUSH1 0x7F AND SWAP2 PUSH2 0xF6E JUMP JUMPDEST PUSH2 0x160 DUP2 ADD SWAP1 DUP2 LT PUSH8 0xFFFFFFFFFFFFFFFF DUP3 GT OR PUSH2 0x540 JUMPI PUSH1 0x40 MSTORE JUMP JUMPDEST SWAP1 PUSH1 0x1F DUP1 NOT SWAP2 ADD AND DUP2 ADD SWAP1 DUP2 LT PUSH8 0xFFFFFFFFFFFFFFFF DUP3 GT OR PUSH2 0x540 JUMPI PUSH1 0x40 MSTORE JUMP JUMPDEST SWAP1 PUSH1 0x40 MLOAD SWAP2 DUP3 PUSH1 0x0 DUP3 SLOAD SWAP3 PUSH2 0xFEC DUP5 PUSH2 0xF5F JUMP JUMPDEST SWAP1 DUP2 DUP5 MSTORE PUSH1 0x1 SWAP5 DUP6 DUP2 AND SWAP1 DUP2 PUSH1 0x0 EQ PUSH2 0x105B JUMPI POP PUSH1 0x1 EQ PUSH2 0x1018 JUMPI JUMPDEST POP POP PUSH2 0x1016 SWAP3 POP SUB DUP4 PUSH2 0xFB6 JUMP JUMPDEST JUMP JUMPDEST SWAP1 SWAP4 SWAP2 POP PUSH1 0x0 MSTORE PUSH1 0x20 SWAP1 DUP2 PUSH1 0x0 KECCAK256 SWAP4 PUSH1 0x0 SWAP2 JUMPDEST DUP2 DUP4 LT PUSH2 0x1043 JUMPI POP POP PUSH2 0x1016 SWAP4 POP DUP3 ADD ADD CODESIZE DUP1 PUSH2 0x1008 JUMP JUMPDEST DUP6 SLOAD DUP9 DUP5 ADD DUP6 ADD MSTORE SWAP5 DUP6 ADD SWAP5 DUP8 SWAP5 POP SWAP2 DUP4 ADD SWAP2 PUSH2 0x102B JUMP JUMPDEST SWAP2 POP POP PUSH2 0x1016 SWAP5 POP PUSH1 0x20 SWAP3 POP PUSH1 0xFF NOT AND DUP3 DUP5 ADD MSTORE ISZERO ISZERO PUSH1 0x5 SHL DUP3 ADD ADD CODESIZE DUP1 PUSH2 0x1008 JUMP JUMPDEST SWAP2 SWAP1 DUP3 MLOAD SWAP3 DUP4 DUP3 MSTORE PUSH1 0x0 JUMPDEST DUP5 DUP2 LT PUSH2 0x10AA JUMPI POP POP DUP3 PUSH1 0x0 PUSH1 0x20 DUP1 SWAP5 SWAP6 DUP5 ADD ADD MSTORE PUSH1 0x1F DUP1 NOT SWAP2 ADD AND ADD ADD SWAP1 JUMP JUMPDEST PUSH1 0x20 DUP2 DUP4 ADD DUP2 ADD MLOAD DUP5 DUP4 ADD DUP3 ADD MSTORE ADD PUSH2 0x1089 JUMP JUMPDEST DUP2 PUSH1 0x1F DUP3 ADD SLT ISZERO PUSH2 0xCC JUMPI DUP1 CALLDATALOAD SWAP1 PUSH8 0xFFFFFFFFFFFFFFFF DUP3 GT PUSH2 0x540 JUMPI PUSH1 0x40 MLOAD SWAP3 PUSH2 0x10F3 PUSH1 0x1F DUP5 ADD PUSH1 0x1F NOT AND PUSH1 0x20 ADD DUP6 PUSH2 0xFB6 JUMP JUMPDEST DUP3 DUP5 MSTORE PUSH1 0x20 DUP4 DUP4 ADD ADD GT PUSH2 0xCC JUMPI DUP2 PUSH1 0x0 SWAP3 PUSH1 0x20 DUP1 SWAP4 ADD DUP4 DUP7 ADD CALLDATACOPY DUP4 ADD ADD MSTORE SWAP1 JUMP JUMPDEST SWAP2 SWAP1 DUP3 ADD DUP1 SWAP3 GT PUSH2 0x468 JUMPI JUMP JUMPDEST SWAP1 DUP2 PUSH1 0x20 SWAP2 SUB SLT PUSH2 0xCC JUMPI MLOAD DUP1 ISZERO ISZERO DUP2 SUB PUSH2 0xCC JUMPI SWAP1 JUMP JUMPDEST ISZERO PUSH2 0x1141 JUMPI JUMP JUMPDEST PUSH1 0x40 MLOAD PUSH3 0x461BCD PUSH1 0xE5 SHL DUP2 MSTORE PUSH1 0x20 PUSH1 0x4 DUP3 ADD MSTORE PUSH1 0xF PUSH1 0x24 DUP3 ADD MSTORE PUSH15 0x151C985B9CD9995C8819985A5B1959 PUSH1 0x8A SHL PUSH1 0x44 DUP3 ADD MSTORE PUSH1 0x64 SWAP1 REVERT JUMPDEST ISZERO PUSH2 0x117F JUMPI JUMP JUMPDEST PUSH1 0x40 MLOAD PUSH3 0x461BCD PUSH1 0xE5 SHL DUP2 MSTORE PUSH1 0x20 PUSH1 0x4 DUP3 ADD MSTORE PUSH1 0x9 PUSH1 0x24 DUP3 ADD MSTORE PUSH9 0x546F6F206561726C79 PUSH1 0xB8 SHL PUSH1 0x44 DUP3 ADD MSTORE PUSH1 0x64 SWAP1 REVERT INVALID LOG2 PUSH5 0x6970667358 0x22 SLT KECCAK256 SIGNEXTEND CODESIZE 0xBD 0xB0 0xB7 NOT TIMESTAMP 0xA9 0x4D NUMBER CALLDATALOAD INVALID REVERT SWAP15 0xD5 STATICCALL 0x29 0xD0 CODECOPY SIGNEXTEND 0xD6 CHAINID DIV 0xBB SWAP10 0xDE CODECOPY 0xE0 ISZERO 0xD3 0x2B 0xE6 PUSH5 0x736F6C6343 STOP ADDMOD EQ STOP CALLER "},"methodIdentifiers":{"campaignCount()":"7274e30d","campaigns(uint256)":"141961bc","createCampaign((string,string,uint256,uint256,uint256,address,string))":"92eb8a02","donate(uint256,uint256)":"0cdd53f6","donations(uint256,address)":"ee1554a3","getCampaign(uint256)":"5598f8cc","refund(uint256)":"278ecde1","usdcToken()":"11eac855","withdrawFunds(uint256)":"155dd5ee"}}}}}