{"contracts/Fundraising.sol":{"Fundraising":{"abi":[{"inputs":[{"internalType":"address","name":"_usdcToken","type":"address"}],"stateMutability":"nonpayable","type":"constructor"},{"anonymous":false,"inputs":[{"indexed":true,"internalType":"uint256","name":"campaignId","type":"uint256"},{"indexed":true,"internalType":"address","name":"creator","type":"address"}],"name":"CampaignCreated","type":"event"},{"inputs":[{"internalType":"uint256","name":"","type":"uint256"}],"name":"campaigns","outputs":[{"internalType":"string","name":"name","type":"string"},{"internalType":"string","name":"description","type":"string"},{"internalType":"uint256","name":"goal","type":"uint256"},{"internalType":"uint256","name":"minDonation","type":"uint256"},{"internalType":"uint256","name":"deadline","type":"uint256"},{"internalType":"address","name":"beneficiary","type":"address"},{"internalType":"address","name":"creator","type":"address"},{"internalType":"address","name":"token","type":"address"},{"internalType":"string","name":"image","type":"string"},{"internalType":"uint256","name":"totalCollected","type":"uint256"},{"internalType":"bool","name":"withdrawn","type":"bool"}],"stateMutability":"view","type":"function"},{"inputs":[{"components":[{"internalType":"string","name":"name","type":"string"},{"internalType":"string","name":"description","type":"string"},{"internalType":"uint256","name":"goal","type":"uint256"},{"internalType":"uint256","name":"minDonation","type":"uint256"},{"internalType":"uint256","name":"duration","type":"uint256"},{"internalType":"address","name":"beneficiary","type":"address"},{"internalType":"string","name":"image","type":"string"}],"internalType":"struct Fundraising.CampaignRequest","name":"req","type":"tuple"}],"name":"createCampaign","outputs":[],"stateMutability":"nonpayable","type":"function"},{"inputs":[{"internalType":"uint256","name":"campaignId","type":"uint256"},{"internalType":"uint256","name":"amount","type":"uint256"}],"name":"donate","outputs":[],"stateMutability":"nonpayable","type":"function"},{"inputs":[{"internalType":"uint256","name":"","type":"uint256"},{"internalType":"address","name":"","type":"address"}],"name":"donations","outputs":[{"internalType":"uint256","name":"","type":"uint256"}],"stateMutability":"view","type":"function"},{"inputs":[{"internalType":"uint256","name":"id","type":"uint256"}],"name":"getCampaign","outputs":[{"components":[{"internalType":"string","name":"name","type":"string"},{"internalType":"string","name":"description","type":"string"},{"internalType":"uint256","name":"goal","type":"uint256"},{"internalType":"uint256","name":"minDonation","type":"uint256"},{"internalType":"uint256","name":"deadline","type":"uint256"},{"internalType":"address","name":"beneficiary","type":"address"},{"internalType":"address","name":"creator","type":"address"},{"internalType":"address","name":"token","type":"address"},{"internalType":"string","name":"image","type":"string"},{"internalType":"uint256","name":"totalCollected","type":"uint256"},{"internalType":"bool","name":"withdrawn","type":"bool"}],"internalType":"struct Fundraising.Campaign","name":"","type":"tuple"}],"stateMutability":"view","type":"function"},{"inputs":[{"internalType":"uint256","name":"campaignId","type":"uint256"}],"name":"refund","outputs":[],"stateMutability":"nonpayable","type":"function"},{"inputs":[],"name":"usdcToken","outputs":[{"internalType":"address","name":"","type":"address"}],"stateMutability":"view","type":"function"},{"inputs":[{"internalType":"uint256","name":"campaignId","type":"uint256"}],"name":"withdrawFunds","outputs":[],"stateMutability":"nonpayable","type":"function"}],"evm":{"bytecode":{"linkReferences":{},"object":"60803461007457601f6111e138819003918201601f19168301916001600160401b038311848410176100795780849260209460405283398101031261007457516001600160a01b0381169081900361007457600280546001600160a01b03191691909117905560405161115190816100908239f35b600080fd5b634e487b7160e01b600052604160045260246000fdfe6080604052600436101561001257600080fd5b60003560e01c80630cdd53f614610d2257806311eac85514610cf9578063141961bc14610c08578063155dd5ee14610a7d578063278ecde1146108e35780635598f8cc1461071057806392eb8a02146100c65763ee1554a31461007457600080fd5b346100c15760403660031901126100c1576024356001600160a01b038116908190036100c15760043560005260016020526040600020906000526020526020604060002054604051908152f35b600080fd5b346100c1576003196020368201126100c1576004359067ffffffffffffffff82116100c15760e09082360301126100c1576040519060e0820182811067ffffffffffffffff82111761053557604052806004013567ffffffffffffffff81116100c1576101399060043691840101611029565b8252602481013567ffffffffffffffff81116100c15761015f9060043691840101611029565b9160208101928352604081019160448101358352606082019060648101358252608083016084820135815260a48201359160018060a01b03831683036100c15760a0850192835260c48101359067ffffffffffffffff82116100c15760046101ca9236920101611029565b9360c081019485528151156106d8576101ec9051965195519351915142611080565b915160025494516040519790966001600160a01b039687169690921694919061021489610f04565b8852602088015260408701526060860152608085015260a08401523360c084015260e08301526101008201526000610120820152600061014082015260005468010000000000000000811015610535578060016102749201600055610e7c565b9190916106c257805191825167ffffffffffffffff8111610535576102998254610eca565b601f811161067e575b506020601f8211600114610616578192939460009261060b575b50508160011b916000199060031b1c19161781555b602082015191825167ffffffffffffffff8111610535576102f56001840154610eca565b601f81116105c4575b506020601f8211600114610556578192939460009261054b575b50508160011b916000199060031b1c19161760018301555b60408101516002830155606081015160038301556080810151600483015560a08101516005830180546001600160a01b039283166001600160a01b03199182161790915560c083015160068501805491841691831691909117905560e08301516007850180549190931691161790556101008101518051909290600882019067ffffffffffffffff8111610535576103c88254610eca565b601f81116104ed575b506020601f821160011461047e579080600a9493926101409697600092610473575b50508160011b916000199060031b1c19161790555b610120840151600982015501910151151560ff80198354169116179055600054600019810190811161045d5733907f633109eec20320eded000fc1e2634211aa7e92ba3f5b15faf6dcdafca05094e4600080a3005b634e487b7160e01b600052601160045260246000fd5b0151905087806103f3565b601f198216958360005260206000209660005b8181106104d55750966001928492600a979695610140999a106104bc575b505050811b019055610408565b015160001960f88460031b161c191690558780806104af565b83830151895560019098019760209384019301610491565b826000526020600020601f830160051c8101916020841061052b575b601f0160051c01905b81811061051f57506103d1565b60008155600101610512565b9091508190610509565b634e487b7160e01b600052604160045260246000fd5b015190508480610318565b6001840160005260206000209060005b601f19841681106105ac5750600193949583601f19811610610593575b505050811b016001830155610330565b015160001960f88460031b161c19169055848080610583565b9091602060018192858a015181550193019101610566565b600184016000526020600020601f830160051c810160208410610604575b601f830160051c820181106105f85750506102fe565b600081556001016105e2565b50806105e2565b0151905084806102bc565b8260005260206000209060005b601f19841681106106665750600193949583601f1981161061064d575b505050811b0181556102d1565b015160001960f88460031b161c19169055848080610640565b9091602060018192858a015181550193019101610623565b826000526020600020601f830160051c8101602084106106bb575b601f830160051c820181106106af5750506102a2565b60008155600101610699565b5080610699565b634e487b7160e01b600052600060045260246000fd5b60405162461bcd60e51b815260206004820152601060248201526f24b73b30b634b210323ab930ba34b7b760811b6044820152606490fd5b346100c15760203660031901126100c157600061014060405161073281610f04565b60608152606060208201528260408201528260608201528260808201528260a08201528260c08201528260e0820152606061010082015282610120820152015261077d600435610e7c565b5060ff600a6040519261078f84610f04565b61079881610f43565b84526107a660018201610f43565b602085015260028101546040850152600381015460608501526004810154608085015260058101546001600160a01b0390811660a08601526006820154811660c086015260078201541660e085015261080160088201610f43565b610100850152600981015461012085015201541615156101408201526040518091602082526101406108ca61085d61084784516101606020880152610180870190610fe9565b6020850151868203601f19016040880152610fe9565b6040840151606086015260608401516080860152608084015160a086015260018060a01b0360a08501511660c086015260018060a01b0360c08501511660e086015260018060a01b0360e085015116610100860152610100840151601f1986830301610120870152610fe9565b9161012081015182850152015115156101608301520390f35b346100c1576020806003193601126100c15760043561090181610e7c565b5061091260048201544210156110e3565b600981015460028201541115610a4d5781600052600183526040600020336000528352604060002054918215610a1a5760009081526001845260408082203380845290865281832083905560079390930154905163a9059cbb60e01b81526004810193909352602483019390935290918391839160449183916001600160a01b03165af1908115610a0e576000916109e1575b50156109ad57005b6064906040519062461bcd60e51b82526004820152600d60248201526c1499599d5b990819985a5b1959609a1b6044820152fd5b610a019150823d8411610a07575b6109f98183610f21565b81019061108d565b826109a5565b503d6109ef565b6040513d6000823e3d90fd5b60405162461bcd60e51b815260048101859052600b60248201526a2737903237b730ba34b7b760a91b6044820152606490fd5b60405162461bcd60e51b815260048101849052600860248201526711dbd85b081b595d60c21b6044820152606490fd5b346100c1576020806003193601126100c157610a9a600435610e7c565b5060068101546001600160a01b03919082163303610bd557600a81019182549260ff8416610b9c57610ad260048401544210156110e3565b60098301549360028401548510610b6857600160ff1991909116179055600782015460059092015460405163a9059cbb60e01b81529082166001600160a01b031660048201526024810193909352839183916044918391600091165af1908115610a0e57610b4992600092610b4b575b50506110a5565b005b610b619250803d10610a07576109f98183610f21565b8280610b42565b60405162461bcd60e51b815260048101879052600c60248201526b11dbd85b081b9bdd081b595d60a21b6044820152606490fd5b60405162461bcd60e51b815260048101869052601160248201527020b63932b0b23c903bb4ba34323930bbb760791b6044820152606490fd5b60405162461bcd60e51b815260048101849052600b60248201526a2737ba1031b932b0ba37b960a91b6044820152606490fd5b346100c15760203660031901126100c1576004356000548110156100c157610c32610cab91610e7c565b50610c3c81610f43565b90610c4960018201610f43565b610ce660028301546003840154600485015460018060a01b0380600588015416816006890154169160078901541692610c8460088a01610f43565b94610cb960ff600a60098d01549c015416996040519d8e9d8e610160908181520190610fe9565b8d810360208f015290610fe9565b9660408c015260608b015260808a015260a089015260c088015260e0870152858203610100870152610fe9565b9161012084015215156101408301520390f35b346100c15760003660031901126100c1576002546040516001600160a01b039091168152602090f35b346100c15760403660031901126100c157602435600435610d4281610e7c565b5060048101544211610e465760038101548310610e085760078101546040516323b872dd60e01b8152336004820152306024820152604481018590529190602090839060649082906000906001600160a01b03165af1918215610a0e57600992610db491600091610dea575b506110a5565b01610dc0838254611080565b90556000526001602052604060002033600052602052610de66040600020918254611080565b9055005b610e02915060203d8111610a07576109f98183610f21565b86610dae565b60405162461bcd60e51b8152602060048201526016602482015275446f6e6174696f6e2062656c6f77206d696e696d756d60501b6044820152606490fd5b60405162461bcd60e51b815260206004820152600e60248201526d10d85b5c185a59db88195b99195960921b6044820152606490fd5b906000918254811015610eb657600b90838052027f290decd9548b62a8d60345a988386fc84ba6bc95484008f6362f93160ef3e563019190565b634e487b7160e01b83526032600452602483fd5b90600182811c92168015610efa575b6020831014610ee457565b634e487b7160e01b600052602260045260246000fd5b91607f1691610ed9565b610160810190811067ffffffffffffffff82111761053557604052565b90601f8019910116810190811067ffffffffffffffff82111761053557604052565b9060405191826000825492610f5784610eca565b908184526001948581169081600014610fc65750600114610f83575b5050610f8192500383610f21565b565b9093915060005260209081600020936000915b818310610fae575050610f8193508201013880610f73565b85548884018501529485019487945091830191610f96565b915050610f8194506020925060ff191682840152151560051b8201013880610f73565b919082519283825260005b848110611015575050826000602080949584010152601f8019910116010190565b602081830181015184830182015201610ff4565b81601f820112156100c15780359067ffffffffffffffff8211610535576040519261105e601f8401601f191660200185610f21565b828452602083830101116100c157816000926020809301838601378301015290565b9190820180921161045d57565b908160209103126100c1575180151581036100c15790565b156110ac57565b60405162461bcd60e51b815260206004820152600f60248201526e151c985b9cd9995c8819985a5b1959608a1b6044820152606490fd5b156110ea57565b60405162461bcd60e51b8152602060048201526009602482015268546f6f206561726c7960b81b6044820152606490fdfea264697066735822122049a1d27591b35fb66ce1fe5edf5fd855b94de63f85374f74c0401e77f03b7fd164736f6c63430008140033","opcodes":"PUSH1 0x80 CALLVALUE PUSH2 0x74 JUMPI PUSH1 0x1F PUSH2 0x11E1 CODESIZE DUP2 SWAP1 SUB SWAP2 DUP3 ADD PUSH1 0x1F NOT AND DUP4 ADD SWAP2 PUSH1 0x1 PUSH1 0x1 PUSH1 0x40 SHL SUB DUP4 GT DUP5 DUP5 LT OR PUSH2 0x79 JUMPI DUP1 DUP5 SWAP3 PUSH1 0x20 SWAP5 PUSH1 0x40 MSTORE DUP4 CODECOPY DUP2 ADD SUB SLT PUSH2 0x74 JUMPI MLOAD PUSH1 0x1 PUSH1 0x1 PUSH1 0xA0 SHL SUB DUP2 AND SWAP1 DUP2 SWAP1 SUB PUSH2 0x74 JUMPI PUSH1 0x2 DUP1 SLOAD PUSH1 0x1 PUSH1 0x1 PUSH1 0xA0 SHL SUB NOT AND SWAP2 SWAP1 SWAP2 OR SWAP1 SSTORE PUSH1 0x40 MLOAD PUSH2 0x1151 SWAP1 DUP2 PUSH2 0x90 DUP3 CODECOPY RETURN JUMPDEST PUSH1 0x0 DUP1 REVERT JUMPDEST PUSH4 0x4E487B71 PUSH1 0xE0 SHL PUSH1 0x0 MSTORE PUSH1 0x41 PUSH1 0x4 MSTORE PUSH1 0x24 PUSH1 0x0 REVERT INVALID PUSH1 0x80 PUSH1 0x40 MSTORE PUSH1 0x4 CALLDATASIZE LT ISZERO PUSH2 0x12 JUMPI PUSH1 0x0 DUP1 REVERT JUMPDEST PUSH1 0x0 CALLDATALOAD PUSH1 0xE0 SHR DUP1 PUSH4 0xCDD53F6 EQ PUSH2 0xD22 JUMPI DUP1 PUSH4 0x11EAC855 EQ PUSH2 0xCF9 JUMPI DUP1 PUSH4 0x141961BC EQ PUSH2 0xC08 JUMPI DUP1 PUSH4 0x155DD5EE EQ PUSH2 0xA7D JUMPI DUP1 PUSH4 0x278ECDE1 EQ PUSH2 0x8E3 JUMPI DUP1 PUSH4 0x5598F8CC EQ PUSH2 0x710 JUMPI DUP1 PUSH4 0x92EB8A02 EQ PUSH2 0xC6 JUMPI PUSH4 0xEE1554A3 EQ PUSH2 0x74 JUMPI PUSH1 0x0 DUP1 REVERT JUMPDEST CALLVALUE PUSH2 0xC1 JUMPI PUSH1 0x40 CALLDATASIZE PUSH1 0x3 NOT ADD SLT PUSH2 0xC1 JUMPI PUSH1 0x24 CALLDATALOAD PUSH1 0x1 PUSH1 0x1 PUSH1 0xA0 SHL SUB DUP2 AND SWAP1 DUP2 SWAP1 SUB PUSH2 0xC1 JUMPI PUSH1 0x4 CALLDATALOAD PUSH1 0x0 MSTORE PUSH1 0x1 PUSH1 0x20 MSTORE PUSH1 0x40 PUSH1 0x0 KECCAK256 SWAP1 PUSH1 0x0 MSTORE PUSH1 0x20 MSTORE PUSH1 0x20 PUSH1 0x40 PUSH1 0x0 KECCAK256 SLOAD PUSH1 0x40 MLOAD SWAP1 DUP2 MSTORE RETURN JUMPDEST PUSH1 0x0 DUP1 REVERT JUMPDEST CALLVALUE PUSH2 0xC1 JUMPI PUSH1 0x3 NOT PUSH1 0x20 CALLDATASIZE DUP3 ADD SLT PUSH2 0xC1 JUMPI PUSH1 0x4 CALLDATALOAD SWAP1 PUSH8 0xFFFFFFFFFFFFFFFF DUP3 GT PUSH2 0xC1 JUMPI PUSH1 0xE0 SWAP1 DUP3 CALLDATASIZE SUB ADD SLT PUSH2 0xC1 JUMPI PUSH1 0x40 MLOAD SWAP1 PUSH1 0xE0 DUP3 ADD DUP3 DUP2 LT PUSH8 0xFFFFFFFFFFFFFFFF DUP3 GT OR PUSH2 0x535 JUMPI PUSH1 0x40 MSTORE DUP1 PUSH1 0x4 ADD CALLDATALOAD PUSH8 0xFFFFFFFFFFFFFFFF DUP2 GT PUSH2 0xC1 JUMPI PUSH2 0x139 SWAP1 PUSH1 0x4 CALLDATASIZE SWAP2 DUP5 ADD ADD PUSH2 0x1029 JUMP JUMPDEST DUP3 MSTORE PUSH1 0x24 DUP2 ADD CALLDATALOAD PUSH8 0xFFFFFFFFFFFFFFFF DUP2 GT PUSH2 0xC1 JUMPI PUSH2 0x15F SWAP1 PUSH1 0x4 CALLDATASIZE SWAP2 DUP5 ADD ADD PUSH2 0x1029 JUMP JUMPDEST SWAP2 PUSH1 0x20 DUP2 ADD SWAP3 DUP4 MSTORE PUSH1 0x40 DUP2 ADD SWAP2 PUSH1 0x44 DUP2 ADD CALLDATALOAD DUP4 MSTORE PUSH1 0x60 DUP3 ADD SWAP1 PUSH1 0x64 DUP2 ADD CALLDATALOAD DUP3 MSTORE PUSH1 0x80 DUP4 ADD PUSH1 0x84 DUP3 ADD CALLDATALOAD DUP2 MSTORE PUSH1 0xA4 DUP3 ADD CALLDATALOAD SWAP2 PUSH1 0x1 DUP1 PUSH1 0xA0 SHL SUB DUP4 AND DUP4 SUB PUSH2 0xC1 JUMPI PUSH1 0xA0 DUP6 ADD SWAP3 DUP4 MSTORE PUSH1 0xC4 DUP2 ADD CALLDATALOAD SWAP1 PUSH8 0xFFFFFFFFFFFFFFFF DUP3 GT PUSH2 0xC1 JUMPI PUSH1 0x4 PUSH2 0x1CA SWAP3 CALLDATASIZE SWAP3 ADD ADD PUSH2 0x1029 JUMP JUMPDEST SWAP4 PUSH1 0xC0 DUP2 ADD SWAP5 DUP6 MSTORE DUP2 MLOAD ISZERO PUSH2 0x6D8 JUMPI PUSH2 0x1EC SWAP1 MLOAD SWAP7 MLOAD SWAP6 MLOAD SWAP4 MLOAD SWAP2 MLOAD TIMESTAMP PUSH2 0x1080 JUMP JUMPDEST SWAP2 MLOAD PUSH1 0x2 SLOAD SWAP5 MLOAD PUSH1 0x40 MLOAD SWAP8 SWAP1 SWAP7 PUSH1 0x1 PUSH1 0x1 PUSH1 0xA0 SHL SUB SWAP7 DUP8 AND SWAP7 SWAP1 SWAP3 AND SWAP5 SWAP2 SWAP1 PUSH2 0x214 DUP10 PUSH2 0xF04 JUMP JUMPDEST DUP9 MSTORE PUSH1 0x20 DUP9 ADD MSTORE PUSH1 0x40 DUP8 ADD MSTORE PUSH1 0x60 DUP7 ADD MSTORE PUSH1 0x80 DUP6 ADD MSTORE PUSH1 0xA0 DUP5 ADD MSTORE CALLER PUSH1 0xC0 DUP5 ADD MSTORE PUSH1 0xE0 DUP4 ADD MSTORE PUSH2 0x100 DUP3 ADD MSTORE PUSH1 0x0 PUSH2 0x120 DUP3 ADD MSTORE PUSH1 0x0 PUSH2 0x140 DUP3 ADD MSTORE PUSH1 0x0 SLOAD PUSH9 0x10000000000000000 DUP2 LT ISZERO PUSH2 0x535 JUMPI DUP1 PUSH1 0x1 PUSH2 0x274 SWAP3 ADD PUSH1 0x0 SSTORE PUSH2 0xE7C JUMP JUMPDEST SWAP2 SWAP1 SWAP2 PUSH2 0x6C2 JUMPI DUP1 MLOAD SWAP2 DUP3 MLOAD PUSH8 0xFFFFFFFFFFFFFFFF DUP2 GT PUSH2 0x535 JUMPI PUSH2 0x299 DUP3 SLOAD PUSH2 0xECA JUMP JUMPDEST PUSH1 0x1F DUP2 GT PUSH2 0x67E JUMPI JUMPDEST POP PUSH1 0x20 PUSH1 0x1F DUP3 GT PUSH1 0x1 EQ PUSH2 0x616 JUMPI DUP2 SWAP3 SWAP4 SWAP5 PUSH1 0x0 SWAP3 PUSH2 0x60B JUMPI JUMPDEST POP POP DUP2 PUSH1 0x1 SHL SWAP2 PUSH1 0x0 NOT SWAP1 PUSH1 0x3 SHL SHR NOT AND OR DUP2 SSTORE JUMPDEST PUSH1 0x20 DUP3 ADD MLOAD SWAP2 DUP3 MLOAD PUSH8 0xFFFFFFFFFFFFFFFF DUP2 GT PUSH2 0x535 JUMPI PUSH2 0x2F5 PUSH1 0x1 DUP5 ADD SLOAD PUSH2 0xECA JUMP JUMPDEST PUSH1 0x1F DUP2 GT PUSH2 0x5C4 JUMPI JUMPDEST POP PUSH1 0x20 PUSH1 0x1F DUP3 GT PUSH1 0x1 EQ PUSH2 0x556 JUMPI DUP2 SWAP3 SWAP4 SWAP5 PUSH1 0x0 SWAP3 PUSH2 0x54B JUMPI JUMPDEST POP POP DUP2 PUSH1 0x1 SHL SWAP2 PUSH1 0x0 NOT SWAP1 PUSH1 0x3 SHL SHR NOT AND OR PUSH1 0x1 DUP4 ADD SSTORE JUMPDEST PUSH1 0x40 DUP2 ADD MLOAD PUSH1 0x2 DUP4 ADD SSTORE PUSH1 0x60 DUP2 ADD MLOAD PUSH1 0x3 DUP4 ADD SSTORE PUSH1 0x80 DUP2 ADD MLOAD PUSH1 0x4 DUP4 ADD SSTORE PUSH1 0xA0 DUP2 ADD MLOAD PUSH1 0x5 DUP4 ADD DUP1 SLOAD PUSH1 0x1 PUSH1 0x1 PUSH1 0xA0 SHL SUB SWAP3 DUP4 AND PUSH1 0x1 PUSH1 0x1 PUSH1 0xA0 SHL SUB NOT SWAP2 DUP3 AND OR SWAP1 SWAP2 SSTORE PUSH1 0xC0 DUP4 ADD MLOAD PUSH1 0x6 DUP6 ADD DUP1 SLOAD SWAP2 DUP5 AND SWAP2 DUP4 AND SWAP2 SWAP1 SWAP2 OR SWAP1 SSTORE PUSH1 0xE0 DUP4 ADD MLOAD PUSH1 0x7 DUP6 ADD DUP1 SLOAD SWAP2 SWAP1 SWAP4 AND SWAP2 AND OR SWAP1 SSTORE PUSH2 0x100 DUP2 ADD MLOAD DUP1 MLOAD SWAP1 SWAP3 SWAP1 PUSH1 0x8 DUP3 ADD SWAP1 PUSH8 0xFFFFFFFFFFFFFFFF DUP2 GT PUSH2 0x535 JUMPI PUSH2 0x3C8 DUP3 SLOAD PUSH2 0xECA JUMP JUMPDEST PUSH1 0x1F DUP2 GT PUSH2 0x4ED JUMPI JUMPDEST POP PUSH1 0x20 PUSH1 0x1F DUP3 GT PUSH1 0x1 EQ PUSH2 0x47E JUMPI SWAP1 DUP1 PUSH1 0xA SWAP5 SWAP4 SWAP3 PUSH2 0x140 SWAP7 SWAP8 PUSH1 0x0 SWAP3 PUSH2 0x473 JUMPI JUMPDEST POP POP DUP2 PUSH1 0x1 SHL SWAP2 PUSH1 0x0 NOT SWAP1 PUSH1 0x3 SHL SHR NOT AND OR SWAP1 SSTORE JUMPDEST PUSH2 0x120 DUP5 ADD MLOAD PUSH1 0x9 DUP3 ADD SSTORE ADD SWAP2 ADD MLOAD ISZERO ISZERO PUSH1 0xFF DUP1 NOT DUP4 SLOAD AND SWAP2 AND OR SWAP1 SSTORE PUSH1 0x0 SLOAD PUSH1 0x0 NOT DUP2 ADD SWAP1 DUP2 GT PUSH2 0x45D JUMPI CALLER SWAP1 PUSH32 0x633109EEC20320EDED000FC1E2634211AA7E92BA3F5B15FAF6DCDAFCA05094E4 PUSH1 0x0 DUP1 LOG3 STOP JUMPDEST PUSH4 0x4E487B71 PUSH1 0xE0 SHL PUSH1 0x0 MSTORE PUSH1 0x11 PUSH1 0x4 MSTORE PUSH1 0x24 PUSH1 0x0 REVERT JUMPDEST ADD MLOAD SWAP1 POP DUP8 DUP1 PUSH2 0x3F3 JUMP JUMPDEST PUSH1 0x1F NOT DUP3 AND SWAP6 DUP4 PUSH1 0x0 MSTORE PUSH1 0x20 PUSH1 0x0 KECCAK256 SWAP7 PUSH1 0x0 JUMPDEST DUP2 DUP2 LT PUSH2 0x4D5 JUMPI POP SWAP7 PUSH1 0x1 SWAP3 DUP5 SWAP3 PUSH1 0xA SWAP8 SWAP7 SWAP6 PUSH2 0x140 SWAP10 SWAP11 LT PUSH2 0x4BC JUMPI JUMPDEST POP POP POP DUP2 SHL ADD SWAP1 SSTORE PUSH2 0x408 JUMP JUMPDEST ADD MLOAD PUSH1 0x0 NOT PUSH1 0xF8 DUP5 PUSH1 0x3 SHL AND SHR NOT AND SWAP1 SSTORE DUP8 DUP1 DUP1 PUSH2 0x4AF JUMP JUMPDEST DUP4 DUP4 ADD MLOAD DUP10 SSTORE PUSH1 0x1 SWAP1 SWAP9 ADD SWAP8 PUSH1 0x20 SWAP4 DUP5 ADD SWAP4 ADD PUSH2 0x491 JUMP JUMPDEST DUP3 PUSH1 0x0 MSTORE PUSH1 0x20 PUSH1 0x0 KECCAK256 PUSH1 0x1F DUP4 ADD PUSH1 0x5 SHR DUP2 ADD SWAP2 PUSH1 0x20 DUP5 LT PUSH2 0x52B JUMPI JUMPDEST PUSH1 0x1F ADD PUSH1 0x5 SHR ADD SWAP1 JUMPDEST DUP2 DUP2 LT PUSH2 0x51F JUMPI POP PUSH2 0x3D1 JUMP JUMPDEST PUSH1 0x0 DUP2 SSTORE PUSH1 0x1 ADD PUSH2 0x512 JUMP JUMPDEST SWAP1 SWAP2 POP DUP2 SWAP1 PUSH2 0x509 JUMP JUMPDEST PUSH4 0x4E487B71 PUSH1 0xE0 SHL PUSH1 0x0 MSTORE PUSH1 0x41 PUSH1 0x4 MSTORE PUSH1 0x24 PUSH1 0x0 REVERT JUMPDEST ADD MLOAD SWAP1 POP DUP5 DUP1 PUSH2 0x318 JUMP JUMPDEST PUSH1 0x1 DUP5 ADD PUSH1 0x0 MSTORE PUSH1 0x20 PUSH1 0x0 KECCAK256 SWAP1 PUSH1 0x0 JUMPDEST PUSH1 0x1F NOT DUP5 AND DUP2 LT PUSH2 0x5AC JUMPI POP PUSH1 0x1 SWAP4 SWAP5 SWAP6 DUP4 PUSH1 0x1F NOT DUP2 AND LT PUSH2 0x593 JUMPI JUMPDEST POP POP POP DUP2 SHL ADD PUSH1 0x1 DUP4 ADD SSTORE PUSH2 0x330 JUMP JUMPDEST ADD MLOAD PUSH1 0x0 NOT PUSH1 0xF8 DUP5 PUSH1 0x3 SHL AND SHR NOT AND SWAP1 SSTORE DUP5 DUP1 DUP1 PUSH2 0x583 JUMP JUMPDEST SWAP1 SWAP2 PUSH1 0x20 PUSH1 0x1 DUP2 SWAP3 DUP6 DUP11 ADD MLOAD DUP2 SSTORE ADD SWAP4 ADD SWAP2 ADD PUSH2 0x566 JUMP JUMPDEST PUSH1 0x1 DUP5 ADD PUSH1 0x0 MSTORE PUSH1 0x20 PUSH1 0x0 KECCAK256 PUSH1 0x1F DUP4 ADD PUSH1 0x5 SHR DUP2 ADD PUSH1 0x20 DUP5 LT PUSH2 0x604 JUMPI JUMPDEST PUSH1 0x1F DUP4 ADD PUSH1 0x5 SHR DUP3 ADD DUP2 LT PUSH2 0x5F8 JUMPI POP POP PUSH2 0x2FE JUMP JUMPDEST PUSH1 0x0 DUP2 SSTORE PUSH1 0x1 ADD PUSH2 0x5E2 JUMP JUMPDEST POP DUP1 PUSH2 0x5E2 JUMP JUMPDEST ADD MLOAD SWAP1 POP DUP5 DUP1 PUSH2 0x2BC JUMP JUMPDEST DUP3 PUSH1 0x0 MSTORE PUSH1 0x20 PUSH1 0x0 KECCAK256 SWAP1 PUSH1 0x0 JUMPDEST PUSH1 0x1F NOT DUP5 AND DUP2 LT PUSH2 0x666 JUMPI POP PUSH1 0x1 SWAP4 SWAP5 SWAP6 DUP4 PUSH1 0x1F NOT DUP2 AND LT PUSH2 0x64D JUMPI JUMPDEST POP POP POP DUP2 SHL ADD DUP2 SSTORE PUSH2 0x2D1 JUMP JUMPDEST ADD MLOAD PUSH1 0x0 NOT PUSH1 0xF8 DUP5 PUSH1 0x3 SHL AND SHR NOT AND SWAP1 SSTORE DUP5 DUP1 DUP1 PUSH2 0x640 JUMP JUMPDEST SWAP1 SWAP2 PUSH1 0x20 PUSH1 0x1 DUP2 SWAP3 DUP6 DUP11 ADD MLOAD DUP2 SSTORE ADD SWAP4 ADD SWAP2 ADD PUSH2 0x623 JUMP JUMPDEST DUP3 PUSH1 0x0 MSTORE PUSH1 0x20 PUSH1 0x0 KECCAK256 PUSH1 0x1F DUP4 ADD PUSH1 0x5 SHR DUP2 ADD PUSH1 0x20 DUP5 LT PUSH2 0x6BB JUMPI JUMPDEST PUSH1 0x1F DUP4 ADD PUSH1 0x5 SHR DUP3 ADD DUP2 LT PUSH2 0x6AF JUMPI POP POP PUSH2 0x2A2 JUMP JUMPDEST PUSH1 0x0 DUP2 SSTORE PUSH1 0x1 ADD PUSH2 0x699 JUMP JUMPDEST POP DUP1 PUSH2 0x699 JUMP JUMPDEST PUSH4 0x4E487B71 PUSH1 0xE0 SHL PUSH1 0x0 MSTORE PUSH1 0x0 PUSH1 0x4 MSTORE PUSH1 0x24 PUSH1 0x0 REVERT JUMPDEST PUSH1 0x40 MLOAD PUSH3 0x461BCD PUSH1 0xE5 SHL DUP2 MSTORE PUSH1 0x20 PUSH1 0x4 DUP3 ADD MSTORE PUSH1 0x10 PUSH1 0x24 DUP3 ADD MSTORE PUSH16 0x24B73B30B634B210323AB930BA34B7B7 PUSH1 0x81 SHL PUSH1 0x44 DUP3 ADD MSTORE PUSH1 0x64 SWAP1 REVERT JUMPDEST CALLVALUE PUSH2 0xC1 JUMPI PUSH1 0x20 CALLDATASIZE PUSH1 0x3 NOT ADD SLT PUSH2 0xC1 JUMPI PUSH1 0x0 PUSH2 0x140 PUSH1 0x40 MLOAD PUSH2 0x732 DUP2 PUSH2 0xF04 JUMP JUMPDEST PUSH1 0x60 DUP2 MSTORE PUSH1 0x60 PUSH1 0x20 DUP3 ADD MSTORE DUP3 PUSH1 0x40 DUP3 ADD MSTORE DUP3 PUSH1 0x60 DUP3 ADD MSTORE DUP3 PUSH1 0x80 DUP3 ADD MSTORE DUP3 PUSH1 0xA0 DUP3 ADD MSTORE DUP3 PUSH1 0xC0 DUP3 ADD MSTORE DUP3 PUSH1 0xE0 DUP3 ADD MSTORE PUSH1 0x60 PUSH2 0x100 DUP3 ADD MSTORE DUP3 PUSH2 0x120 DUP3 ADD MSTORE ADD MSTORE PUSH2 0x77D PUSH1 0x4 CALLDATALOAD PUSH2 0xE7C JUMP JUMPDEST POP PUSH1 0xFF PUSH1 0xA PUSH1 0x40 MLOAD SWAP3 PUSH2 0x78F DUP5 PUSH2 0xF04 JUMP JUMPDEST PUSH2 0x798 DUP2 PUSH2 0xF43 JUMP JUMPDEST DUP5 MSTORE PUSH2 0x7A6 PUSH1 0x1 DUP3 ADD PUSH2 0xF43 JUMP JUMPDEST PUSH1 0x20 DUP6 ADD MSTORE PUSH1 0x2 DUP2 ADD SLOAD PUSH1 0x40 DUP6 ADD MSTORE PUSH1 0x3 DUP2 ADD SLOAD PUSH1 0x60 DUP6 ADD MSTORE PUSH1 0x4 DUP2 ADD SLOAD PUSH1 0x80 DUP6 ADD MSTORE PUSH1 0x5 DUP2 ADD SLOAD PUSH1 0x1 PUSH1 0x1 PUSH1 0xA0 SHL SUB SWAP1 DUP2 AND PUSH1 0xA0 DUP7 ADD MSTORE PUSH1 0x6 DUP3 ADD SLOAD DUP2 AND PUSH1 0xC0 DUP7 ADD MSTORE PUSH1 0x7 DUP3 ADD SLOAD AND PUSH1 0xE0 DUP6 ADD MSTORE PUSH2 0x801 PUSH1 0x8 DUP3 ADD PUSH2 0xF43 JUMP JUMPDEST PUSH2 0x100 DUP6 ADD MSTORE PUSH1 0x9 DUP2 ADD SLOAD PUSH2 0x120 DUP6 ADD MSTORE ADD SLOAD AND ISZERO ISZERO PUSH2 0x140 DUP3 ADD MSTORE PUSH1 0x40 MLOAD DUP1 SWAP2 PUSH1 0x20 DUP3 MSTORE PUSH2 0x140 PUSH2 0x8CA PUSH2 0x85D PUSH2 0x847 DUP5 MLOAD PUSH2 0x160 PUSH1 0x20 DUP9 ADD MSTORE PUSH2 0x180 DUP8 ADD SWAP1 PUSH2 0xFE9 JUMP JUMPDEST PUSH1 0x20 DUP6 ADD MLOAD DUP7 DUP3 SUB PUSH1 0x1F NOT ADD PUSH1 0x40 DUP9 ADD MSTORE PUSH2 0xFE9 JUMP JUMPDEST PUSH1 0x40 DUP5 ADD MLOAD PUSH1 0x60 DUP7 ADD MSTORE PUSH1 0x60 DUP5 ADD MLOAD PUSH1 0x80 DUP7 ADD MSTORE PUSH1 0x80 DUP5 ADD MLOAD PUSH1 0xA0 DUP7 ADD MSTORE PUSH1 0x1 DUP1 PUSH1 0xA0 SHL SUB PUSH1 0xA0 DUP6 ADD MLOAD AND PUSH1 0xC0 DUP7 ADD MSTORE PUSH1 0x1 DUP1 PUSH1 0xA0 SHL SUB PUSH1 0xC0 DUP6 ADD MLOAD AND PUSH1 0xE0 DUP7 ADD MSTORE PUSH1 0x1 DUP1 PUSH1 0xA0 SHL SUB PUSH1 0xE0 DUP6 ADD MLOAD AND PUSH2 0x100 DUP7 ADD MSTORE PUSH2 0x100 DUP5 ADD MLOAD PUSH1 0x1F NOT DUP7 DUP4 SUB ADD PUSH2 0x120 DUP8 ADD MSTORE PUSH2 0xFE9 JUMP JUMPDEST SWAP2 PUSH2 0x120 DUP2 ADD MLOAD DUP3 DUP6 ADD MSTORE ADD MLOAD ISZERO ISZERO PUSH2 0x160 DUP4 ADD MSTORE SUB SWAP1 RETURN JUMPDEST CALLVALUE PUSH2 0xC1 JUMPI PUSH1 0x20 DUP1 PUSH1 0x3 NOT CALLDATASIZE ADD SLT PUSH2 0xC1 JUMPI PUSH1 0x4 CALLDATALOAD PUSH2 0x901 DUP2 PUSH2 0xE7C JUMP JUMPDEST POP PUSH2 0x912 PUSH1 0x4 DUP3 ADD SLOAD TIMESTAMP LT ISZERO PUSH2 0x10E3 JUMP JUMPDEST PUSH1 0x9 DUP2 ADD SLOAD PUSH1 0x2 DUP3 ADD SLOAD GT ISZERO PUSH2 0xA4D JUMPI DUP2 PUSH1 0x0 MSTORE PUSH1 0x1 DUP4 MSTORE PUSH1 0x40 PUSH1 0x0 KECCAK256 CALLER PUSH1 0x0 MSTORE DUP4 MSTORE PUSH1 0x40 PUSH1 0x0 KECCAK256 SLOAD SWAP2 DUP3 ISZERO PUSH2 0xA1A JUMPI PUSH1 0x0 SWAP1 DUP2 MSTORE PUSH1 0x1 DUP5 MSTORE PUSH1 0x40 DUP1 DUP3 KECCAK256 CALLER DUP1 DUP5 MSTORE SWAP1 DUP7 MSTORE DUP2 DUP4 KECCAK256 DUP4 SWAP1 SSTORE PUSH1 0x7 SWAP4 SWAP1 SWAP4 ADD SLOAD SWAP1 MLOAD PUSH4 0xA9059CBB PUSH1 0xE0 SHL DUP2 MSTORE PUSH1 0x4 DUP2 ADD SWAP4 SWAP1 SWAP4 MSTORE PUSH1 0x24 DUP4 ADD SWAP4 SWAP1 SWAP4 MSTORE SWAP1 SWAP2 DUP4 SWAP2 DUP4 SWAP2 PUSH1 0x44 SWAP2 DUP4 SWAP2 PUSH1 0x1 PUSH1 0x1 PUSH1 0xA0 SHL SUB AND GAS CALL SWAP1 DUP2 ISZERO PUSH2 0xA0E JUMPI PUSH1 0x0 SWAP2 PUSH2 0x9E1 JUMPI JUMPDEST POP ISZERO PUSH2 0x9AD JUMPI STOP JUMPDEST PUSH1 0x64 SWAP1 PUSH1 0x40 MLOAD SWAP1 PUSH3 0x461BCD PUSH1 0xE5 SHL DUP3 MSTORE PUSH1 0x4 DUP3 ADD MSTORE PUSH1 0xD PUSH1 0x24 DUP3 ADD MSTORE PUSH13 0x1499599D5B990819985A5B1959 PUSH1 0x9A SHL PUSH1 0x44 DUP3 ADD MSTORE REVERT JUMPDEST PUSH2 0xA01 SWAP2 POP DUP3 RETURNDATASIZE DUP5 GT PUSH2 0xA07 JUMPI JUMPDEST PUSH2 0x9F9 DUP2 DUP4 PUSH2 0xF21 JUMP JUMPDEST DUP2 ADD SWAP1 PUSH2 0x108D JUMP JUMPDEST DUP3 PUSH2 0x9A5 JUMP JUMPDEST POP RETURNDATASIZE PUSH2 0x9EF JUMP JUMPDEST PUSH1 0x40 MLOAD RETURNDATASIZE PUSH1 0x0 DUP3 RETURNDATACOPY RETURNDATASIZE SWAP1 REVERT JUMPDEST PUSH1 0x40 MLOAD PUSH3 0x461BCD PUSH1 0xE5 SHL DUP2 MSTORE PUSH1 0x4 DUP2 ADD DUP6 SWAP1 MSTORE PUSH1 0xB PUSH1 0x24 DUP3 ADD MSTORE PUSH11 0x2737903237B730BA34B7B7 PUSH1 0xA9 SHL PUSH1 0x44 DUP3 ADD MSTORE PUSH1 0x64 SWAP1 REVERT JUMPDEST PUSH1 0x40 MLOAD PUSH3 0x461BCD PUSH1 0xE5 SHL DUP2 MSTORE PUSH1 0x4 DUP2 ADD DUP5 SWAP1 MSTORE PUSH1 0x8 PUSH1 0x24 DUP3 ADD MSTORE PUSH8 0x11DBD85B081B595D PUSH1 0xC2 SHL PUSH1 0x44 DUP3 ADD MSTORE PUSH1 0x64 SWAP1 REVERT JUMPDEST CALLVALUE PUSH2 0xC1 JUMPI PUSH1 0x20 DUP1 PUSH1 0x3 NOT CALLDATASIZE ADD SLT PUSH2 0xC1 JUMPI PUSH2 0xA9A PUSH1 0x4 CALLDATALOAD PUSH2 0xE7C JUMP JUMPDEST POP PUSH1 0x6 DUP2 ADD SLOAD PUSH1 0x1 PUSH1 0x1 PUSH1 0xA0 SHL SUB SWAP2 SWAP1 DUP3 AND CALLER SUB PUSH2 0xBD5 JUMPI PUSH1 0xA DUP2 ADD SWAP2 DUP3 SLOAD SWAP3 PUSH1 0xFF DUP5 AND PUSH2 0xB9C JUMPI PUSH2 0xAD2 PUSH1 0x4 DUP5 ADD SLOAD TIMESTAMP LT ISZERO PUSH2 0x10E3 JUMP JUMPDEST PUSH1 0x9 DUP4 ADD SLOAD SWAP4 PUSH1 0x2 DUP5 ADD SLOAD DUP6 LT PUSH2 0xB68 JUMPI PUSH1 0x1 PUSH1 0xFF NOT SWAP2 SWAP1 SWAP2 AND OR SWAP1 SSTORE PUSH1 0x7 DUP3 ADD SLOAD PUSH1 0x5 SWAP1 SWAP3 ADD SLOAD PUSH1 0x40 MLOAD PUSH4 0xA9059CBB PUSH1 0xE0 SHL DUP2 MSTORE SWAP1 DUP3 AND PUSH1 0x1 PUSH1 0x1 PUSH1 0xA0 SHL SUB AND PUSH1 0x4 DUP3 ADD MSTORE PUSH1 0x24 DUP2 ADD SWAP4 SWAP1 SWAP4 MSTORE DUP4 SWAP2 DUP4 SWAP2 PUSH1 0x44 SWAP2 DUP4 SWAP2 PUSH1 0x0 SWAP2 AND GAS CALL SWAP1 DUP2 ISZERO PUSH2 0xA0E JUMPI PUSH2 0xB49 SWAP3 PUSH1 0x0 SWAP3 PUSH2 0xB4B JUMPI JUMPDEST POP POP PUSH2 0x10A5 JUMP JUMPDEST STOP JUMPDEST PUSH2 0xB61 SWAP3 POP DUP1 RETURNDATASIZE LT PUSH2 0xA07 JUMPI PUSH2 0x9F9 DUP2 DUP4 PUSH2 0xF21 JUMP JUMPDEST DUP3 DUP1 PUSH2 0xB42 JUMP JUMPDEST PUSH1 0x40 MLOAD PUSH3 0x461BCD PUSH1 0xE5 SHL DUP2 MSTORE PUSH1 0x4 DUP2 ADD DUP8 SWAP1 MSTORE PUSH1 0xC PUSH1 0x24 DUP3 ADD MSTORE PUSH12 0x11DBD85B081B9BDD081B595D PUSH1 0xA2 SHL PUSH1 0x44 DUP3 ADD MSTORE PUSH1 0x64 SWAP1 REVERT JUMPDEST PUSH1 0x40 MLOAD PUSH3 0x461BCD PUSH1 0xE5 SHL DUP2 MSTORE PUSH1 0x4 DUP2 ADD DUP7 SWAP1 MSTORE PUSH1 0x11 PUSH1 0x24 DUP3 ADD MSTORE PUSH17 0x20B63932B0B23C903BB4BA34323930BBB7 PUSH1 0x79 SHL PUSH1 0x44 DUP3 ADD MSTORE PUSH1 0x64 SWAP1 REVERT JUMPDEST PUSH1 0x40 MLOAD PUSH3 0x461BCD PUSH1 0xE5 SHL DUP2 MSTORE PUSH1 0x4 DUP2 ADD DUP5 SWAP1 MSTORE PUSH1 0xB PUSH1 0x24 DUP3 ADD MSTORE PUSH11 0x2737BA1031B932B0BA37B9 PUSH1 0xA9 SHL PUSH1 0x44 DUP3 ADD MSTORE PUSH1 0x64 SWAP1 REVERT JUMPDEST CALLVALUE PUSH2 0xC1 JUMPI PUSH1 0x20 CALLDATASIZE PUSH1 0x3 NOT ADD SLT PUSH2 0xC1 JUMPI PUSH1 0x4 CALLDATALOAD PUSH1 0x0 SLOAD DUP2 LT ISZERO PUSH2 0xC1 JUMPI PUSH2 0xC32 PUSH2 0xCAB SWAP2 PUSH2 0xE7C JUMP JUMPDEST POP PUSH2 0xC3C DUP2 PUSH2 0xF43 JUMP JUMPDEST SWAP1 PUSH2 0xC49 PUSH1 0x1 DUP3 ADD PUSH2 0xF43 JUMP JUMPDEST PUSH2 0xCE6 PUSH1 0x2 DUP4 ADD SLOAD PUSH1 0x3 DUP5 ADD SLOAD PUSH1 0x4 DUP6 ADD SLOAD PUSH1 0x1 DUP1 PUSH1 0xA0 SHL SUB DUP1 PUSH1 0x5 DUP9 ADD SLOAD AND DUP2 PUSH1 0x6 DUP10 ADD SLOAD AND SWAP2 PUSH1 0x7 DUP10 ADD SLOAD AND SWAP3 PUSH2 0xC84 PUSH1 0x8 DUP11 ADD PUSH2 0xF43 JUMP JUMPDEST SWAP5 PUSH2 0xCB9 PUSH1 0xFF PUSH1 0xA PUSH1 0x9 DUP14 ADD SLOAD SWAP13 ADD SLOAD AND SWAP10 PUSH1 0x40 MLOAD SWAP14 DUP15 SWAP14 DUP15 PUSH2 0x160 SWAP1 DUP2 DUP2 MSTORE ADD SWAP1 PUSH2 0xFE9 JUMP JUMPDEST DUP14 DUP2 SUB PUSH1 0x20 DUP16 ADD MSTORE SWAP1 PUSH2 0xFE9 JUMP JUMPDEST SWAP7 PUSH1 0x40 DUP13 ADD MSTORE PUSH1 0x60 DUP12 ADD MSTORE PUSH1 0x80 DUP11 ADD MSTORE PUSH1 0xA0 DUP10 ADD MSTORE PUSH1 0xC0 DUP9 ADD MSTORE PUSH1 0xE0 DUP8 ADD MSTORE DUP6 DUP3 SUB PUSH2 0x100 DUP8 ADD MSTORE PUSH2 0xFE9 JUMP JUMPDEST SWAP2 PUSH2 0x120 DUP5 ADD MSTORE ISZERO ISZERO PUSH2 0x140 DUP4 ADD MSTORE SUB SWAP1 RETURN JUMPDEST CALLVALUE PUSH2 0xC1 JUMPI PUSH1 0x0 CALLDATASIZE PUSH1 0x3 NOT ADD SLT PUSH2 0xC1 JUMPI PUSH1 0x2 SLOAD PUSH1 0x40 MLOAD PUSH1 0x1 PUSH1 0x1 PUSH1 0xA0 SHL SUB SWAP1 SWAP2 AND DUP2 MSTORE PUSH1 0x20 SWAP1 RETURN JUMPDEST CALLVALUE PUSH2 0xC1 JUMPI PUSH1 0x40 CALLDATASIZE PUSH1 0x3 NOT ADD SLT PUSH2 0xC1 JUMPI PUSH1 0x24 CALLDATALOAD PUSH1 0x4 CALLDATALOAD PUSH2 0xD42 DUP2 PUSH2 0xE7C JUMP JUMPDEST POP PUSH1 0x4 DUP2 ADD SLOAD TIMESTAMP GT PUSH2 0xE46 JUMPI PUSH1 0x3 DUP2 ADD SLOAD DUP4 LT PUSH2 0xE08 JUMPI PUSH1 0x7 DUP2 ADD SLOAD PUSH1 0x40 MLOAD PUSH4 0x23B872DD PUSH1 0xE0 SHL DUP2 MSTORE CALLER PUSH1 0x4 DUP3 ADD MSTORE ADDRESS PUSH1 0x24 DUP3 ADD MSTORE PUSH1 0x44 DUP2 ADD DUP6 SWAP1 MSTORE SWAP2 SWAP1 PUSH1 0x20 SWAP1 DUP4 SWAP1 PUSH1 0x64 SWAP1 DUP3 SWAP1 PUSH1 0x0 SWAP1 PUSH1 0x1 PUSH1 0x1 PUSH1 0xA0 SHL SUB AND GAS CALL SWAP2 DUP3 ISZERO PUSH2 0xA0E JUMPI PUSH1 0x9 SWAP3 PUSH2 0xDB4 SWAP2 PUSH1 0x0 SWAP2 PUSH2 0xDEA JUMPI JUMPDEST POP PUSH2 0x10A5 JUMP JUMPDEST ADD PUSH2 0xDC0 DUP4 DUP3 SLOAD PUSH2 0x1080 JUMP JUMPDEST SWAP1 SSTORE PUSH1 0x0 MSTORE PUSH1 0x1 PUSH1 0x20 MSTORE PUSH1 0x40 PUSH1 0x0 KECCAK256 CALLER PUSH1 0x0 MSTORE PUSH1 0x20 MSTORE PUSH2 0xDE6 PUSH1 0x40 PUSH1 0x0 KECCAK256 SWAP2 DUP3 SLOAD PUSH2 0x1080 JUMP JUMPDEST SWAP1 SSTORE STOP JUMPDEST PUSH2 0xE02 SWAP2 POP PUSH1 0x20 RETURNDATASIZE DUP2 GT PUSH2 0xA07 JUMPI PUSH2 0x9F9 DUP2 DUP4 PUSH2 0xF21 JUMP JUMPDEST DUP7 PUSH2 0xDAE JUMP JUMPDEST PUSH1 0x40 MLOAD PUSH3 0x461BCD PUSH1 0xE5 SHL DUP2 MSTORE PUSH1 0x20 PUSH1 0x4 DUP3 ADD MSTORE PUSH1 0x16 PUSH1 0x24 DUP3 ADD MSTORE PUSH22 0x446F6E6174696F6E2062656C6F77206D696E696D756D PUSH1 0x50 SHL PUSH1 0x44 DUP3 ADD MSTORE PUSH1 0x64 SWAP1 REVERT JUMPDEST PUSH1 0x40 MLOAD PUSH3 0x461BCD PUSH1 0xE5 SHL DUP2 MSTORE PUSH1 0x20 PUSH1 0x4 DUP3 ADD MSTORE PUSH1 0xE PUSH1 0x24 DUP3 ADD MSTORE PUSH14 0x10D85B5C185A59DB88195B991959 PUSH1 0x92 SHL PUSH1 0x44 DUP3 ADD MSTORE PUSH1 0x64 SWAP1 REVERT JUMPDEST SWAP1 PUSH1 0x0 SWAP2 DUP3 SLOAD DUP2 LT ISZERO PUSH2 0xEB6 JUMPI PUSH1 0xB SWAP1 DUP4 DUP1 MSTORE MUL PUSH32 0x290DECD9548B62A8D60345A988386FC84BA6BC95484008F6362F93160EF3E563 ADD SWAP2 SWAP1 JUMP JUMPDEST PUSH4 0x4E487B71 PUSH1 0xE0 SHL DUP4 MSTORE PUSH1 0x32 PUSH1 0x4 MSTORE PUSH1 0x24 DUP4 REVERT JUMPDEST SWAP1 PUSH1 0x1 DUP3 DUP2 SHR SWAP3 AND DUP1 ISZERO PUSH2 0xEFA JUMPI JUMPDEST PUSH1 0x20 DUP4 LT EQ PUSH2 0xEE4 JUMPI JUMP JUMPDEST PUSH4 0x4E487B71 PUSH1 0xE0 SHL PUSH1 0x0 MSTORE PUSH1 0x22 PUSH1 0x4 MSTORE PUSH1 0x24 PUSH1 0x0 REVERT JUMPDEST SWAP2 PUSH1 0x7F AND SWAP2 PUSH2 0xED9 JUMP JUMPDEST PUSH2 0x160 DUP2 ADD SWAP1 DUP2 LT PUSH8 0xFFFFFFFFFFFFFFFF DUP3 GT OR PUSH2 0x535 JUMPI PUSH1 0x40 MSTORE JUMP JUMPDEST SWAP1 PUSH1 0x1F DUP1 NOT SWAP2 ADD AND DUP2 ADD SWAP1 DUP2 LT PUSH8 0xFFFFFFFFFFFFFFFF DUP3 GT OR PUSH2 0x535 JUMPI PUSH1 0x40 MSTORE JUMP JUMPDEST SWAP1 PUSH1 0x40 MLOAD SWAP2 DUP3 PUSH1 0x0 DUP3 SLOAD SWAP3 PUSH2 0xF57 DUP5 PUSH2 0xECA JUMP JUMPDEST SWAP1 DUP2 DUP5 MSTORE PUSH1 0x1 SWAP5 DUP6 DUP2 AND SWAP1 DUP2 PUSH1 0x0 EQ PUSH2 0xFC6 JUMPI POP PUSH1 0x1 EQ PUSH2 0xF83 JUMPI JUMPDEST POP POP PUSH2 0xF81 SWAP3 POP SUB DUP4 PUSH2 0xF21 JUMP JUMPDEST JUMP JUMPDEST SWAP1 SWAP4 SWAP2 POP PUSH1 0x0 MSTORE PUSH1 0x20 SWAP1 DUP2 PUSH1 0x0 KECCAK256 SWAP4 PUSH1 0x0 SWAP2 JUMPDEST DUP2 DUP4 LT PUSH2 0xFAE JUMPI POP POP PUSH2 0xF81 SWAP4 POP DUP3 ADD ADD CODESIZE DUP1 PUSH2 0xF73 JUMP JUMPDEST DUP6 SLOAD DUP9 DUP5 ADD DUP6 ADD MSTORE SWAP5 DUP6 ADD SWAP5 DUP8 SWAP5 POP SWAP2 DUP4 ADD SWAP2 PUSH2 0xF96 JUMP JUMPDEST SWAP2 POP POP PUSH2 0xF81 SWAP5 POP PUSH1 0x20 SWAP3 POP PUSH1 0xFF NOT AND DUP3 DUP5 ADD MSTORE ISZERO ISZERO PUSH1 0x5 SHL DUP3 ADD ADD CODESIZE DUP1 PUSH2 0xF73 JUMP JUMPDEST SWAP2 SWAP1 DUP3 MLOAD SWAP3 DUP4 DUP3 MSTORE PUSH1 0x0 JUMPDEST DUP5 DUP2 LT PUSH2 0x1015 JUMPI POP POP DUP3 PUSH1 0x0 PUSH1 0x20 DUP1 SWAP5 SWAP6 DUP5 ADD ADD MSTORE PUSH1 0x1F DUP1 NOT SWAP2 ADD AND ADD ADD SWAP1 JUMP JUMPDEST PUSH1 0x20 DUP2 DUP4 ADD DUP2 ADD MLOAD DUP5 DUP4 ADD DUP3 ADD MSTORE ADD PUSH2 0xFF4 JUMP JUMPDEST DUP2 PUSH1 0x1F DUP3 ADD SLT ISZERO PUSH2 0xC1 JUMPI DUP1 CALLDATALOAD SWAP1 PUSH8 0xFFFFFFFFFFFFFFFF DUP3 GT PUSH2 0x535 JUMPI PUSH1 0x40 MLOAD SWAP3 PUSH2 0x105E PUSH1 0x1F DUP5 ADD PUSH1 0x1F NOT AND PUSH1 0x20 ADD DUP6 PUSH2 0xF21 JUMP JUMPDEST DUP3 DUP5 MSTORE PUSH1 0x20 DUP4 DUP4 ADD ADD GT PUSH2 0xC1 JUMPI DUP2 PUSH1 0x0 SWAP3 PUSH1 0x20 DUP1 SWAP4 ADD DUP4 DUP7 ADD CALLDATACOPY DUP4 ADD ADD MSTORE SWAP1 JUMP JUMPDEST SWAP2 SWAP1 DUP3 ADD DUP1 SWAP3 GT PUSH2 0x45D JUMPI JUMP JUMPDEST SWAP1 DUP2 PUSH1 0x20 SWAP2 SUB SLT PUSH2 0xC1 JUMPI MLOAD DUP1 ISZERO ISZERO DUP2 SUB PUSH2 0xC1 JUMPI SWAP1 JUMP JUMPDEST ISZERO PUSH2 0x10AC JUMPI JUMP JUMPDEST PUSH1 0x40 MLOAD PUSH3 0x461BCD PUSH1 0xE5 SHL DUP2 MSTORE PUSH1 0x20 PUSH1 0x4 DUP3 ADD MSTORE PUSH1 0xF PUSH1 0x24 DUP3 ADD MSTORE PUSH15 0x151C985B9CD9995C8819985A5B1959 PUSH1 0x8A SHL PUSH1 0x44 DUP3 ADD MSTORE PUSH1 0x64 SWAP1 REVERT JUMPDEST ISZERO PUSH2 0x10EA JUMPI JUMP JUMPDEST PUSH1 0x40 MLOAD PUSH3 0x461BCD PUSH1 0xE5 SHL DUP2 MSTORE PUSH1 0x20 PUSH1 0x4 DUP3 ADD MSTORE PUSH1 0x9 PUSH1 0x24 DUP3 ADD MSTORE PUSH9 0x546F6F206561726C79 PUSH1 0xB8 SHL PUSH1 0x44 DUP3 ADD MSTORE PUSH1 0x64 SWAP1 REVERT INVALID LOG2 PUSH5 0x6970667358 0x22 SLT KECCAK256 0x49 LOG1 0xD2 PUSH22 0x91B35FB66CE1FE5EDF5FD855B94DE63F85374F74C040 0x1E PUSH24 0xF03B7FD164736F6C63430008140033000000000000000000 "},"methodIdentifiers":{"campaigns(uint256)":"141961bc","createCampaign((string,string,uint256,uint256,uint256,address,string))":"92eb8a02","donate(uint256,uint256)":"0cdd53f6","donations(uint256,address)":"ee1554a3","getCampaign(uint256)":"5598f8cc","refund(uint256)":"278ecde1","usdcToken()":"11eac855","withdrawFunds(uint256)":"155dd5ee"}}}}}